:100000000C94FE060C9445070C9445070C94450788
:100010000C9445070C9445070C9445070C94450730
:100020000C9445070C9445070C94F6230C94C824B3
:100030000C94471E0C9445070C9445070C944507F7
:100040000C9445070C9445070C9445070C94450700
:100050000C9445070C94AF1E0C9445070C9445076F
:100060000C9445070C9445070C9445070C944507E0
:100070000C9445070C9445070C9445070C944507D0
:100080000C9445070C9445070C9445070C944507C0
:100090000C9445070C9445070C9445070C944507B0
:1000A0000C9445070C9445070C944507D107D307DA
:1000B000DE07D507D707D907DB07DD07E007E2072B
:1000C000E407EF07E607E807EA07EC07EE07F107A2
:1000D00076147614A814A814E214351635163516BD
:1000E00000153516A315A3150816111635162F166B
:1000F000B015B015B015B015B015B015B015B015D8
:10010000B015B015B015B015B015B015B015B015C7
:10011000BF15CD15D415DB15E515B116B116C316EF
:10012000C316BA16C316C316C316B116B116BF1638
:10013000C316C316BF16352557254A2657254A2606
:100140009C25BF254A261426272629001E001F00AD
:100150002000210022002300240025002600270083
:100160002D002E00310035002B0014001A0008006D
:10017000150017001C0018000C00120013002F00BF
:1001800030002A000000E00004001600070009000B
:100190000A000B000D000E000F0033003400320087
:1001A00028000000E10064001D001B00060019008B
:1001B0000500110010003600370038008700E50008
:1001C0000151E000E200E3000000000000002C000C
:1001D000000000000000E700E700E600E400000087
:1001E000A5003A003B003C003D003E003F004000BF
:1001F0004100420043004400450049004C003900E2
:100200003470357036703770387039703A703B70B2
:1002100047004800520001002A0000000100AA0027
:10022000A900A80001000100250238004A004B0087
:1002300050004F00010028000000010001000100F3
:1002400065003070327031702E022D004D004E006E
:100250005100010001000100010001000100000047
:10026000000000000070000000000000AD00010070
:100270000100010000000100010001000100010077
:100280000100010001000100010001000100010066
:100290000100010001000100010001000100010056
:1002A0000100010001000100010001000100010046
:1002B0000000010001000100010001000100010037
:1002C0000100010001000100010001000100000027
:1002D0000100010001000100010001000100010016
:1002E0000100010001000100010001000100010006
:1002F00001000100000000000000010000000000FB
:1003000000000100010001000100000001000100E7
:1003100001000100010001000100010001000100D5
:1003200001000100010001000100010001000100C5
:1003300001000100010001000100010001000100B5
:1003400001000100010000000100010001000100A6
:100350000100010001000100010001000100010095
:100360000100010000000100010001000100010086
:100370000100010001000100010001000100010075
:100380000100010001000100010000000000000068
:100390000100000000000000010001000100010058
:1003A0000000010001000100010001000100010046
:1003B0000100010001000100010001000100010035
:1003C0000100010001000100010001000100010025
:1003D0000100010001000100010001000000010016
:1003E0000100010001000100010001000100010005
:1003F00001000100010001000100000001000100F6
:1004000001000100010001000100010001000100E4
:1004100001000100010001000100010001000100D4
:1004200000000000000001000000000000000100CA
:1004300001000100010000000100010001000100B5
:1004400001000100010001000100010001000100A4
:100450000100010001000100010001000100010094
:100460000100010001000100010001000100010084
:100470000100000001000100010001000100010075
:100480000100010001000100010001000100010064
:100490000000010001000100010001000100010055
:1004A0000100010001000100010001000100010044
:1004B0000100010001000000000000000100000038
:1004C0000000000001000100010001000000010027
:1004D0000100010001000100010001000100010014
:1004E0000100010001000100010001000100010004
:1004F00001000100010001000100010001000100F4
:1005000001000100010001000000010001000100E4
:1005100001000100010001000100010001000100D3
:1005200001000100010000000100010001000100C4
:1005300001000100010001000100010001000100B3
:1005400001000100010001000100010000000000A5
:100550000000010000000000000001000100010097
:100560000100000001000100010001000100010084
:100570000100010001000100010001000100010073
:100580000100010001000100010001000100010063
:100590000100010001000100010001000100000054
:1005A0000100010001000100010001000100010043
:1005B0000100010001000100010001000000010034
:1005C0000100010001000100010001000100010023
:1005D0000100010001000100010001000100010013
:1005E0000100000000000000010000000000000009
:1005F00001000100010001000000010001000100F4
:1006000001000100010001000100010001000100E2
:1006100001000100010001000100010001000100D2
:1006200001000100010001000100010001000100C2
:1006300001000100000001000100010001000100B3
:1006400001000100010001000100010001000100A2
:100650000100000001000100010001000100010093
:100660000100010001000100010001000100010082
:100670000100010001000100000000000000010075
:100680000000000000000100010001000100000066
:100690000100010001000100010001000100010052
:1006A0000100010001000100010001000100010042
:1006B0000100010001000100010001000100010032
:1006C0000100010001000100010000000100010023
:1006D0000100010001000100010001000100010012
:1006E0000100010001000100000001000100010003
:1006F00001000100010001000100010001000100F2
:1007000001000100010001000100010001000000E2
:1007100000000000010000000000000001000100D6
:1007200001000100000001000100010001000100C2
:1007300001000100010001000100010001000100B1
:1007400001000100010001000100010001000100A1
:100750000100010001000100010001000100010091
:100760000000010001000100010001000100010082
:100770000100010001000100010001000100000072
:100780000100010001000100010001000100010061
:100790000100010001000100010001000100010051
:1007A0000100010000000000000001000000000046
:1007B0000000010001000100010000000100010033
:1007C0000100010001000100010001000100010021
:1007D0000100010001000100010001000100010011
:1007E0000100010001000100010001000100010001
:1007F00001000100010000000100010001000100F2
:1008000001000100010001000100010001000100E0
:1008100001000100000001000100010001000100D1
:1008200001000100010001000100010001000100C0
:1008300001000100010001000100000000000000B3
:1008400001000000000000000100010001000100A3
:100850000000010001000100010001000100010091
:100860000100010001000100010001000100010080
:100870000100010001000100010001000100010070
:100880000100010001000100010001000000010061
:100890000100010001000100010001000100010050
:1008A0000100010001000100010000000100010041
:1008B0000100010001000100010001000100010030
:1008C0000100010001000100010001000100010020
:1008D0000000000000000100000000000000010016
:1008E0000100010001000000010001000100010001
:1008F00001000100010001000100010001000100F0
:1009000001000100010001000100010001000100DF
:1009100001000100010001000100010001000100CF
:1009200001000000010001000100010001000100C0
:1009300001000100010001000100010001000100AF
:1009400000000100010001000100010001000100A0
:10095000010001000100010001000100010001008F
:100960000100010001000000000000000100000083
:100970000000000001000100010001000000010072
:10098000010001000100010001000100010001005F
:10099000010001000100010001000100010001004F
:1009A000010001000100010001000100010001003F
:1009B0000100010001000100000001000100010030
:1009C000010001000100010001000100010001001F
:1009D0000100010001000000010001000100010010
:1009E00001000100010001000100010001000100FF
:1009F00001000100010001000100010000000000F1
:100A000000000100000000000000010001000100E2
:100A100001000000010001000100010001000100CF
:100A200001000100010001000100010001000100BE
:100A300001000100010001000100010001000100AE
:100A4000010001000100010001000100010000009F
:100A5000010001000100010001000100010001008E
:100A6000010001000100010001000100000001007F
:100A7000010001000100010001000100010001006E
:100A8000010001000100010001000100010001005E
:100A90000100000000000000010000000000000054
:100AA00001000100010001000000643214643214EE
:100AB000783C1E1E140A050000000001010102021C
:100AC000030405050607090A0B0C0E0F1112141575
:100AD00017191B1D1F212325282A2C2F31343639A5
:100AE0003B3E414346494C4F5255585A5D616467FD
:100AF0006A6D707376797C7F8386898C8F929598E6
:100B00009B9EA2A5A7AAADB0B3B6B9BCBEC1C4C6D0
:100B1000C9CBCED0D3D5D7DADCDEE0E2E4E6E8EA32
:100B2000EBEDEEF0F1F3F4F5F6F8F9FAFAFBFCFD73
:100B3000FDFEFEFEFFFFFFFFFFFFFFFEFEFEFDFDD1
:100B4000FCFBFAFAF9F8F6F5F4F3F1F0EEEDEBEA66
:100B5000E8E6E4E2E0DEDCDAD7D5D3D0CECBC9C616
:100B6000C4C1BEBCB9B6B3B0ADAAA7A5A29E9B989E
:100B700095928F8C898683807C797673706D6A6795
:100B800064615D5A5855524F4C494643413E3B398A
:100B90003634312F2C2A282523211F1D1B19171508
:100BA0001412110F0E0C0B0A0907060505040302A7
:100BB000020101010000000000000000010101012C
:100BC0000101010101020202020202020202030308
:100BD00003030303030304040404040405050505D7
:100BE0000506060606060707070708080808090994
:100BF000090A0A0A0A0B0B0B0C0C0C0D0D0D0E0E3C
:100C00000F0F0F10101111111212131314141515C8
:100C100016161717181819191A1A1B1C1C1D1D1E39
:100C20001F1F20202122222324252526272728298B
:100C30002A2B2B2C2D2E2F2F3031323334353636B4
:100C40003738393A3B3C3D3E3F40414243444647BA
:100C500048494A4B4C4D4F50515253555657585A8C
:100C60005B5C5E5F606263646667696A6C6D6E7030
:100C70007173747678797B7C7E8081838486888AA0
:100C80008B8D8F91929496989A9B9D9FA1A3A5A7D7
:100C9000A9ABADAFB1B3B5B7B9BBBDBFC1C4C6C8D1
:100CA000CACCCFD1D3D6D8DADCDFE1E4E6E8EBED8D
:100CB000F0F2F5F7FAFCFF12036B006500790062B1
:100CC000006F006100720064000000160371006D87
:100CD000006B006200750069006C006400650072C2
:100CE0000000000403090409025400030100A0FAF3
:100CF0000904000001030101000921110100012282
:100D000040000705810308000A09040100010300EF
:100D100000000921110100012236000705820308A5
:100D2000000A09040200010300000009211101006A
:100D30000122390007058303200001120110010080
:100D4000000008EDFE6060010001020001050109DC
:100D500006A101050719E029E71500250195087589
:100D60000181020508190129059505750191029572
:100D700001750391010507190029F7150025019553
:100D8000F875018102C005010980A10185021601E3
:100D9000002603001A81002A830075109501810046
:100DA000C0050C0901A1018503160100269C021A49
:100DB00001002A9C02751095018100C005010906F9
:100DC000A101050719E029E715002501950875011E
:100DD000810295017508810105081901290595050C
:100DE000750191029501750391010507190029FF0D
:100DF000150026FF00950675088100C011241FBE4E
:100E0000CFEFDAE0DEBFCDBF04B603FE27C080918E
:100E1000790290917A02A0917B02B0917C02873096
:100E2000904BA740B04BD1F41092790210927A0205
:100E300010927B0210927C0214BE84B7877F84BF1D
:100E40000FB6F894A8958091600088618093600047
:100E5000109260000FBEE0E0F8E3099511E0A0E019
:100E6000B1E0ECEEFDE402C005900D92A233B107B3
:100E7000D9F722E0A2E3B1E001C01D92A937B20781
:100E8000E1F70E9441210C94F4260C94000080E0CC
:100E900090E008950895089581E00895089581E00F
:100EA00008950C944C070E949D162FEF84E39CE05C
:100EB000215080409040E1F700C000000C94D41E07
:100EC000FF920F931F93CF93DF938C01FC01C0819E
:100ED000D18180918301811113C08281882349F0DF
:100EE000CE010E94191CF82E682FCE010E94C21B51
:100EF00004C0CE010E94ED1BF82EBE018F2D04C050
:100F0000CE010E94191CBE010E941409EC01B80117
:100F10000E945107882309F43BC1B801CE010E9409
:100F2000450B882309F434C1C633F0E7DF0741F4E9
:100F3000F8018281882309F42BC10E94320E28C156
:100F4000C73380E7D80708F09AC0C53190E7D907C2
:100F500008F07EC0C230E0E7DE0708F452C0F801B6
:100F60008281882309F459C00E94D31D811102C0D7
:100F70000E94AD1D0E94E61D90E090936A0280934E
:100F80006902FE01E350F047E231F10530F4EA5A1C
:100F9000FF4F809169020C94A626809169028160BE
:100FA00027C0826025C0846023C0806121C0806228
:100FB0001FC080641DC080681BC08460886018C02A
:100FC0008E7F16C08D7F14C08B7F12C08F7E10C0A5
:100FD0008F7D0EC08F7B0CC08F770AC08B7F877F81
:100FE00007C087FB222720F991E0922790FB87F921
:100FF00080936902809169020E94EA1D0E949D16F9
:10100000C7C0C115F0E7DF0781F0C130D047A9F0B4
:1010100081E08093340180933501C801DF91CF9145
:101020001F910F91FF900C944F07F8018281882344
:1010300009F4AEC00E945307ABC0F8018281882337
:1010400009F4A6C080911B02816080931B02A0C09E
:10105000C43390E7D90741F4F8018281882309F469
:1010600097C00E94510F94C0C533D04789F6F8014C
:101070008281882309F48CC00E94470F89C0CA333B
:10108000F0E7DF0741F4F8018281882309F480C08A
:101090000E949E0E7DC0CB3380E7D807D8F4F801BC
:1010A0008281C833F0E7DF0731F4882309F470C088
:1010B0000E94690E6DC0C933D04730F4882309F40B
:1010C00067C00E944A0E64C0882309F461C00E9470
:1010D000840E5EC0CC33E0E7DE0719F5F8018281AB
:1010E000882351F0109234010E94791E90933301AD
:1010F0008093320182E02AC08091340181110FC0B7
:1011000080913201909133010E94851E883C9105A7
:1011100030F486E20E941D1386E20E94E51382E00D
:101120001DC0CC33F0E7DF07E0F0CD33D04709F046
:101130006FCFF8018281882361F0109235010E94FF
:10114000791E909333018093320180E20E9434141F
:101150001FC080913501882359F080E20E943B1422
:1011600017C0F8018281882399F00E94B90E10C03F
:1011700080913201909133010E94851E883C910537
:1011800060F787E20E941D1387E20E94E513E5CF16
:1011900080E0DF91CF911F910F91FF9008950C9403
:1011A000960B279A2F988FEF9FEF9093870080934D
:1011B00086008AE08093800089E1809381000C940E
:1011C0000F1F0E94D1080C94940B282F2F98809108
:1011D0008000211108C0877F8093800010928D00CD
:1011E00010928C000895886080938000233019F459
:1011F0008FEF9FEF0FC083E090E0821B9109880F73
:10120000991F2FEF3FEFA90102C0569547958A9588
:10121000E2F7CA0190938D0080938C0008950C949E
:101220004E070C940F0908952BE4829FC0011124EE
:10123000FC012FE0729FE00DF11D1124E60FF11D5E
:10124000EE0FFF1FE65BFE4F859194910895880F86
:10125000991FFC01E655F54F8591949108950E94E0
:1012600014090E94C80A811520E5920708F03FC0C2
:10127000811530E4930708F014C1883E910508F504
:10128000803E910508F083C1883A910578F4853A4B
:10129000910508F09EC08130910509F478C108F4E9
:1012A0002FC18430910508F072C12AC18D3B910590
:1012B00008F49AC0803C910508F422C1805C910931
:1012C000EAC0811540E2940758F4811521E09207A5
:1012D00008F05DC1803F910508F412C19065089542
:1012E000811530E3930708F0D9C09F70D4C08115F1
:1012F00045E5940708F044C0811524E5920708F0FD
:10130000E7C0811532E5930710F5811541E5940793
:1013100008F0CAC09C0154E0369527955A95E1F72C
:10132000922F9370482F437021E030E002C0220FCB
:10133000331F4A95E2F73C68392B8F708695869566
:1013400040E2849FC0011124822B932B0895AC01AD
:1013500043705527282F269526958115934508F02B
:10136000A8C081E090E002C0880F991F4A95E2F77B
:1013700040E2249F90011124822B932B9C680895B6
:10138000803340E7940790F4803220E7920708F01A
:10139000AAC0811536E5930708F49FC09C0130561A
:1013A0002115304108F0ACC09F709BC0813320E70D
:1013B000920709F49FC008F49AC0823340E794076B
:1013C00009F49BC08333904709F09AC080E093ED05
:1013D0000895853A910509F496C0863A910509F079
:1013E00095C082E890E40895883A910509F491C087
:1013F000893A910509F490C08A3A910509F48FC0A1
:101400008B3A910509F48EC08C3A910509F48DC090
:101410008B3B910509F48CC08C3B910509F48BC082
:101420008D3A910509F48AC0803B910509F489C081
:101430008E3A910509F488C08F3A910509F487C066
:10144000813B910509F486C0823B910509F485C072
:10145000833B910509F484C0843B910509F483C062
:10146000853B910509F482C0863B910509F481C052
:10147000873B910509F480C0883B910509F47FC042
:10148000893B910509F47EC08A3B910509F47DC032
:1014900080E094E408950E94270908959927906CAC
:1014A00008959F70906A0895982F8827816F906A99
:1014B000089581E090E002C0880F991F4A95E2F7F5
:1014C00040E2249F90011124822B932B9A68089567
:1014D000982F8827846F906A08958F719927982F85
:1014E00088279062089580529047946D089580E017
:1014F00091ED089580E090ED089580E092ED0895DB
:1015000080E090E0089581E890E4089583E890E415
:10151000089582EE94E4089589EE94E408958AEEA5
:1015200094E4089585EB94E4089586EB94E408959B
:1015300083EB94E4089584EB94E4089587EB94E4BA
:1015400008958CEC94E408958DEC94E4089583E878
:1015500095E408958AE895E4089582E995E408956C
:1015600084E995E4089581E296E4089583E296E49F
:10157000089584E296E4089585E296E4089586E26B
:1015800096E4089587E296E408958AE296E4089541
:101590008238910549F1B0F48133910509F459C0BD
:1015A00048F48932910509F44FC08A32910509F453
:1015B00055C008958533910509F441C089339105DB
:1015C00099F00895833E910531F138F4803E9105FC
:1015D00091F0823E9105A9F00895863E910501F1B2
:1015E000873E910539F108952091690220FD3BC0A5
:1015F00021FD39C008958091690280FF34C089E3DC
:1016000041C08091690282FF30C08091690284FDEF
:101610002EC083EE37C08091690282FD26C0F5CFCF
:101620008091690283FF25C08091690284FD1FC0FB
:1016300087EE28C08091690283FD1BC0F5CF8091A1
:10164000690285FD18C019C08091690285FD15C029
:1016500012C08091690286FD12C013C08091690298
:1016600086FD0FC00CC080EE0DC082EE0BC080E086
:1016700009C086EE07C089E205C085E303C08AE29F
:1016800001C081E390E0089508950F931F93CF93D5
:10169000FB012281211102C0C1E041C08C01C09137
:1016A0004301C11125C085319047B1F70E94440B19
:1016B00081E0809343010E94791E909342018093C0
:1016C00041011092360110923801109237011092A8
:1016D0003A011092390110923C0110923B01109294
:1016E0003E0110923D011092400110923F0117C03F
:1016F00080914101909142010E94851E883C910594
:1017000058F690913601E92FF0E0EE0FFF1FE95CEB
:10171000FE4F118300839F5F90933601C0E08C2FB2
:10172000CF911F910F9108950C944A070C944B0789
:10173000CF93DF9385B7806885BF85B7806885BF05
:10174000ADE1B1E042E251E061E070E08D91E82F5F
:10175000E295EF70F0E021A18F70EB0102C0CC0F99
:10176000DD1F8A95E2F7CE019C2F9095922391A3DD
:1017700092A1892B82A34A175B0741F7AEE0B1E043
:101780004DE151E061E070E08D91E82FE295EF705E
:10179000F0E021A18F70EB0102C0CC0FDD1F8A9514
:1017A000E2F7CE019C2F9095922391A392A1892BD1
:1017B00082A34A175B0741F7EEE4F1E0A4E4B1E04D
:1017C00088E591E0119211921D921D928E179F074C
:1017D000C9F7DF91CF910C94E1082F923F924F927D
:1017E0005F926F927F928F929F92AF92BF92CF92B1
:1017F000DF92EF92FF920F931F93CF93DF932DE130
:10180000C22E21E0D22E04E411E0E801EE24E3949C
:10181000F12C662463945E01888099801982188275
:10182000D6018D916D01E82FE295EF70F0E021A1D6
:101830008F70A70102C0440F551F8A95E2F7CA01B5
:10184000242B21A322A1742E7094272122A350EAD5
:101850005A95F1F79EE0292E91E0392E20E030E0F4
:10186000D1015D901D01452D42954F7050E0DA0188
:1018700090964C9068817981552D5F70D70102C098
:10188000AA0FBB1F5A95E2F7AD01442141F4A7010D
:10189000022E02C0440F551F0A94E2F702C040E036
:1018A00050E0462B572B598348832F5F3F4F2F30F3
:1018B0003105B1F691A1792271A292A1892B82A35F
:1018C0002296F501808191818816990641F06092F7
:1018D00058010E94791E90935A0180935901F1E0BA
:1018E000CE34DF0709F097CF809158018823B1F0FB
:1018F0008091590190915A010E94851E069770F0BF
:10190000EEE4F1E0D8018D919D918D018193919349
:10191000B1E00E341B07B1F7109258010E94CF08B6
:1019200081E0DF91CF911F910F91FF90EF90DF90B9
:10193000CF90BF90AF909F908F907F906F905F906F
:101940004F903F902F900895E82FF0E0EE0FFF1F8B
:10195000E25BFE4F808191810895089521B3342F79
:101960003095232331B3432B3FB7F894FC01680F24
:10197000791FE617F70789F0819198E041BB0000D5
:1019800000C087FF21BB880F000000C000C000C05E
:1019900021BB00C09A9591F7ECCF3FBF089520B3CB
:1019A000242B20BB9B01220F331F620F731F0E9449
:1019B000AE0C87EC90E00197F1F700C000000895AD
:1019C00040E40C94CF0CEF92FF920F931F93CF93B0
:1019D000DF93E901662309F44BC0242F30E0EFEFD9
:1019E000F0E0E61BF109B901E69F9001E79F300D99
:1019F000F69F300D1124232F8B01031B11095CE38B
:101A0000E52EF12CB7010E947E26FB01BC01069F4A
:101A1000C001079F900D169F900D1124B7010E94E1
:101A20007E26E230F105B1F040F4309779F031973D
:101A300011F5832F242F461B21C0E430F105A1F0BE
:101A400068F03597C1F4842F861B18C0832F262F8A
:101A5000230F14C0862F830FE42F03C0E42FE61B4F
:101A6000842F432F2E2F0AC0842F462F430F06C0EA
:101A7000842F242F03C080E020E040E0E42FF0E03A
:101A8000E954F44F4491E22FF0E0E954F44F94917B
:101A9000E82FF0E0E954F44FE49149839883EA8316
:101AA000DF91CF911F910F91FF90EF90089588E003
:101AB00090E00C94B426AB01BC0188E090E00C945B
:101AC000D226EFE3F2E083E08083109240028FEFB2
:101AD0008283838360913F02709140028091410232
:101AE000909142020C945B0D80913F0280FF06C0F2
:101AF0006AE070E087E492E00C94E00CE7E4F2E046
:101B0000118210821282339682E0E536F807C1F71F
:101B1000EFCFE7E4F2E0818360834283339692E083
:101B2000E536F907C1F70C94740DEF92FF920F930D
:101B30001F93CF93DF9300D01F92CDB7DEB70091F4
:101B40003F021091400220914102309142020093E5
:101B500043021093440220934502309346022091A1
:101B60003F0220FF21C0042FF62EE92E182F9E01E0
:101B70002F5F3F4F0E94E30C8091430210FB87F9D7
:101B8000809343021695809144028078182BE0FAE6
:101B900017F910934402F0924502009346024B81DC
:101BA00069818A810E94890D0F900F900F90DF91BB
:101BB000CF911F910F91FF90EF9008950F931F9376
:101BC000CF93DF93EC01062F142F90913F0290FFEB
:101BD00044C0892F8E77823021F4CE010E94950D6A
:101BE0001BC0892F86958F732EE3280F2F73243007
:101BF00018F41091420210C0865C8F73893060F433
:101C0000C92FCC1FCC27CC1FD09140028D2F880F1D
:101C1000C82BD7FBDD27D0F980913F02C0FB87F9A5
:101C200080933F02C695809140028078C82BD0FBFC
:101C3000C7F9C093400200934102109342026091A1
:101C40003F02709140028091410290914202DF91E7
:101C5000CF911F910F910C945B0DDF91CF911F914C
:101C60000F910895EFE3F2E02081221F2227221F27
:101C700030914002432F440F842F822B37FB99274A
:101C800090F9089668E671E00E949226438162818D
:101C90000C94DE0D20913F02221F2227221F30913B
:101CA0004002432F440F842F822B37FB992790F952
:101CB000883091051CF4805A9E4F05C0089768E64D
:101CC00071E00E94922640914202609141020C9480
:101CD000DE0D60914102862F90E0883F910514F45B
:101CE000685F01C06FEF80913F02881F8827881FBF
:101CF00090914002292F220F97FB992790F940914C
:101D00004202822B0C94DE0D60914102862F90E0FE
:101D1000089714F0685001C060E080913F02881F6E
:101D20008827881F90914002292F220F97FB99271F
:101D300090F940914202822B0C94DE0D40914202B8
:101D4000842F90E0883F910514F4485F01C04FEF65
:101D500080913F02881F8827881F90914002292F79
:101D6000220F97FB992790F960914102822B0C94E6
:101D7000DE0D40914202842F90E0089714F0485005
:101D800001C040E080913F02881F8827881F909102
:101D90004002292F220F97FB992790F96091410269
:101DA000822B0C94DE0D90913F0290FF3BC0917806
:101DB000811102C0926007C0893110F0906303C0A6
:101DC0008F73880F982B90933F0260913F02709120
:101DD000400280914102909142020E945B0D8091ED
:101DE0003F02982F9E77923019F41092700109C02B
:101DF000982F9695925C9F73963118F491E090938A
:101E00007001881F8827881F90914002292F220F78
:101E100097FB992790F94091420260914102822BF1
:101E20000C94DE0D089580911B02816080931B024B
:101E300081E0809371010E94D31D811104C00E9432
:101E4000AD1D0E94610D0E94570D60933F0270937B
:101E5000400280934102909342026E7761F40E94A7
:101E6000610D0E94570D60933F0270934002809372
:101E700041029093420281E08093700180913F0281
:101E800080FF04C086958F730C94D30E08958091C3
:101E90003F0286958F738F5F893108F081E00C9443
:101EA000D30E80913F02982F909590FB80F98093FC
:101EB0003F0260913F0270914002809141029091F7
:101EC00042020E945B0D80913F0280FF04C0869514
:101ED0008F730C94D30E109270012FEF80E792E075
:101EE000215080409040E1F700C000000C94740D38
:101EF000CF93C82F80916E0190916F010E94851E33
:101F0000EC2FF0E0ED54F54FE491F0E08E179F07D1
:101F100018F10E94791E90936F0180936E01E091F9
:101F20006D01F0E0E954F54F449180913F02881F24
:101F30008827881F90914002292F220F97FB99270D
:101F400090F960914102822B0E94950D80916D0164
:101F500090E0019680936D01CF910895CF93C82FA3
:101F600080916B0190916C010E94851EEC2FF0E036
:101F7000E055F54FE491F0E08E179F07E8F00E94DE
:101F8000791E90936C0180936B01409142026091A5
:101F900041028091690190916A010E94950D8091A2
:101FA000690190916A01019668E671E00E947E26BF
:101FB00090936A0180936901CF910895CF92DF9247
:101FC000FF920F931F93CF93DF93F82E80916701B9
:101FD000909168010E94851EEF2DE695F0E0E05596
:101FE000F54FE491F0E08E179F07B8F10E94791E3B
:101FF000909368018093670107E412E0C0E0D0E0AD
:1020000088E6C82EDD24D394809165019091660105
:102010008C0F9D1FB6010E947E26980140914202BE
:10202000609141020E94E30CA4960D5F1F4FC836D9
:1020300081E0D80749F70E94740D80916501909165
:102040006601F0FE05C00196BE010E947E2601C019
:1020500001979093660180936501DF91CF911F9165
:102060000F91FF90DF90CF900895AF92BF92CF92E3
:10207000DF92EF92FF920F931F93CF93DF93C82FBE
:1020800080FF03C0FF24FA9402C0FF24F3948091E0
:102090006301909164010E94851EC695EC2FF0E0CB
:1020A000E355F54FE491F0E08E179F0708F45BC00D
:1020B0000E94791E9093640180936301C7E4D2E08B
:1020C00000E010E097E0C92ED12C198218821A8204
:1020D00087E0A82EB12CE12C809162018E0D87FD46
:1020E000865F082E000C990B08171907E9F4209158
:1020F00042022A9DC0012B9D900D1124B6010E9421
:102100009226462F80913F02881F8827881F909132
:102110004002592F550F97FB992790F99E01609126
:102120004102852B0E94E30CEF0C81E0A81AB10854
:1021300099F60F5F1F4F23960A30110531F60E9462
:10214000740D8091620191E0F91206C0811102C004
:1021500089E007C0815005C090E00196B8010E9457
:10216000922680936201DF91CF911F910F91FF9092
:10217000EF90DF90CF90BF90AF900895BF92CF9235
:10218000DF92EF92FF920F931F93CF93DF93CDB720
:10219000DEB76E970FB6F894DEBF0FBECDBF182F17
:1021A00080916001909161010E94851EE12FF0E015
:1021B000E655F54FE491F0E08E179F0708F48EC0C6
:1021C0000E94791E9093610180936001CE01019677
:1021D0007C01C12CD12C8C01D70111961C92119736
:1021E0001C9212961C92B12C9091000180915F017B
:1021F000B99E800D112487FD04C08A301CF089E04F
:1022000001C080E0082E000C990BC816D906A1F475
:1022100080913F02881F8827881F90914002592F84
:10222000550F97FB992790F99701409142026091D1
:102230004102852B0E94E30CB394B7E0BB12D4CFCC
:10224000EFEFCE1ADE0AF3E0EF0EF11C8AE0C816BB
:10225000D10411F627E432E059E0E52EF12C6AE0D2
:10226000C62ED12CC701B6010E949226FC01EE0FAA
:10227000FF1F8E0F9F1FF801E80FF91F8181D90101
:1022800011968C93119780818C93828112968C93F6
:10229000BFEFEB1AFB0A2D5F3F4FE3E1EE16F104AF
:1022A00009F70E94740D9091000180915F019130B7
:1022B00049F48A3F2CF489EF80935F018FEF08C0C7
:1022C00081500AC081313CF080E180935F0181E060
:1022D0008093000103C08F5F80935F016E960FB6FD
:1022E000F894DEBF0FBECDBFDF91CF911F910F914C
:1022F000FF90EF90DF90CF90BF900895CF93DF9342
:1023000080915D0190915E010E94851E883E934000
:1023100028F10E94791E90935E0180935D01809167
:102320005B0190915C0101968170992790935C010B
:1023300080935B01C7E4D2E09E014091420260912C
:10234000410280E090E00E94E30C239682E0C536D3
:10235000D80791F7DF91CF910C94740DDF91CF9155
:10236000089580917001882371F180913F028695D4
:102370008F739EE3980F9F73943018F482500C94DF
:10238000780F9AE3980F9F73933018F486500C944B
:10239000AE0F97E3980F9F73963018F489500C9402
:1023A000DE0F91E3980F9F73963018F48F500C94C2
:1023B00035109BE2980F9F73933018F485510C945D
:1023C000BE100C947E11089590937701809376014E
:1023D0000895E0917601F0917701309721F0019016
:1023E000F081E02D099480E00895E0917601F0916C
:1023F0007701309721F00280F381E02D0994089550
:1024000020917401309175012817390771F090936C
:10241000750180937401E0917601F0917701309716
:1024200021F00680F781E02D099408952091720132
:10243000309173012817390771F0909373018093DD
:102440007201E0917601F0917701309721F00084DC
:10245000F185E02D0994089508950C942C120E94A2
:10246000701E0E94980B0E94F61E0E940F1F0C9473
:10247000130F5F926F927F928F929F92AF92BF9253
:10248000CF92DF92EF92FF920F931F93CF93DF9340
:10249000CDB7DEB72A970FB6F894DEBF0FBECDBF1B
:1024A0000E94ED0B99E7692E91E0792E00E010E093
:1024B00088248394912C502E802F0E94A40C6C01B0
:1024C000F301A190B1903F01A826B926A114B1044F
:1024D000B1F40F5F1F4F0530110569F78FEF898346
:1024E0008A831B820E94791E8160782F9D838C8352
:1024F00049815A816B818D810E94EF1239C0809190
:102500001B0281FD0E94AD0C80E090E07401082E5A
:1025100002C0EE0CFF1C0A94E2F795012E213F2128
:10252000232B09F18E835F82CE20DF2081E0CD282E
:1025300009F480E088870E94791E8160782F9A874D
:1025400089874E815F8168858A850E94EF12000F1E
:10255000111FF801E758FE4F80819181E826F92686
:10256000F182E08205C001968F30910579F6B1CFF6
:102570000E94E911909178018917D9F00E94E91120
:10258000809378012A960FB6F894DEBF0FBECDBFB8
:10259000DF91CF911F910F91FF90EF90DF90CF903F
:1025A000BF90AF909F908F907F906F905F900C94B2
:1025B00011092A960FB6F894DEBF0FBECDBFDF918A
:1025C000CF911F910F91FF90EF90DF90CF90BF9030
:1025D000AF909F908F907F906F905F900895CF9372
:1025E000DF93CDB7DEB72B970FB6F894DEBF0FBEE3
:1025F000CDBF4F83588769877A878B87DE01119615
:1026000086E0FD0111928A95E9F785E0FE01379693
:1026100001900D928A95E1F749815A816B817C8105
:102620008D819E810E945D192B960FB6F894DEBFB6
:102630000FBECDBFDF91CF910895882309F4C4C0A8
:10264000823859F40E94E91181FDBEC089E30E94DD
:10265000B71C0E947E1D89E30CC0833871F40E9470
:10266000E91180FDB1C083E50E94B71C0E947E1D68
:1026700083E50E94F61C0C947E1D843859F40E9458
:10268000E91182FDA1C087E40E94B71C0E947E1D53
:1026900087E4EFCF9CEF980F913A18F40E94B71C93
:1026A000EACF90E2980F983050F4877091E001C023
:1026B000990F8A95EAF7892F0E94371DDCCF9BE599
:1026C000980F933070F4853A29F0863A31F083E818
:1026D00090E005C081E890E002C082E890E00C94B0
:1026E000001298E5980F953108F06EC0883A61F1B4
:1026F000893A69F18A3A71F18B3A79F18C3A81F130
:102700008B3B89F18C3B91F18D3A99F1803BA1F1A2
:102710008E3AA9F18F3AB1F1813BB9F1823BC1F117
:10272000833BC9F1843BD1F1853BD9F1863BE1F193
:10273000873BE9F1883BF1F1893BF9F18A3B09F4E8
:102740003FC080E090E03EC082EE90E03BC089EE6A
:1027500090E038C08AEE90E035C085EB90E032C062
:1027600086EB90E02FC083EB90E02CC084EB90E0F0
:1027700029C087EB90E026C08CEC90E023C08DEC64
:1027800090E020C083E891E01DC08AE891E01AC083
:1027900082E991E017C084E991E014C081E292E0FF
:1027A00011C083E292E00EC084E292E00BC085E2A9
:1027B00092E008C086E292E005C087E292E002C0A3
:1027C0008AE292E00C9416120895882309F44BC013
:1027D000823859F40E94E91181FF45C089E30E94C3
:1027E000B71C0E947E1D89E30CC0833871F40E94DF
:1027F000E91180FF38C083E50E94B71C0E947E1D4E
:1028000083E50E94F61C0C947E1D843859F40E94C6
:10281000E91182FF28C087E40E94B71C0E947E1D38
:1028200087E4EFCF9CEF980F913A58F390E2980F1E
:10283000983050F4877091E001C0990F8A95EAF7BB
:10284000892F0E943D1DDFCF9BE5980F933020F428
:1028500080E090E00C940012885A853120F480E0EA
:1028600090E00C9416120895882321F00E94371DE1
:102870000C947E1D0895882321F00E943D1D0C9428
:102880007E1D08958F929F92AF92BF92DF92EF923A
:10289000FF920F931F93CF93DF937C01D62FC72F07
:1028A000FC01058102950F70128111110E94541DC7
:1028B0000E94B01C882379F0112369F080E28D0F0B
:1028C000883048F082E00E94991C0E94B01C91E080
:1028D000D82ED92601C0D12CEC2FE295EF708E2F87
:1028E00090E0FC01E859FF4F0C94A6268C2F807FC6
:1028F000CF70882311F0C295C07F112399F0CC23AB
:1029000009F47CC180E28D0F883010F0D11104C031
:102910008C2F0E94371D03C08C2F0E94471D0E94E0
:102920007E1D6CC18D2F0E94E513CC2309F49DC13F
:1029300080E28D0F883010F0D11104C08C2F0E94DE
:102940003D1D03C08C2F0E944D1D0E947E1D8DC118
:102950008C2F807FCF70803211F0C295C07FDD2335
:1029600019F0D13099F01CC0112341F0002311F16E
:102970008C2F013001F50E94671D77C1002319F0EB
:10298000013009F472C10E946A1D1AC0112321F09E
:10299000063008F06AC10EC0053008F066C110C0EC
:1029A000112361F0002331F0F701858180FF26C1FA
:1029B0008F7085838C2F0E94341457C1011124C15C
:1029C0008C2FDAC08C2F86958695837019F0813014
:1029D00061F04BC1112321F08D2F9C2F937002C009
:1029E00080E090E00E94001240C1112321F08D2F61
:1029F0009C2F937002C080E090E00E94161235C1B7
:102A00008C2F837009F04CC011112FC12D2F2295EE
:102A100026952770220F220F6D2F6F70862F90E062
:102A2000A0E0B0E04C015D01022E04C0880C991CAE
:102A3000AA1CBB1C0A94D2F7D4FF12C08FE090E00E
:102A4000A0E0B0E004C0880F991FAA1FBB1F2A9501
:102A5000D2F7BC01CD01609570958095909503C02B
:102A600060E070E0CB01C695C695C370C23051F0EE
:102A700080F4682979298A299B29C13071F00E9444
:102A8000AF1AF3C0682979298A299B290E94CB1A99
:102A9000ECC00E94AF1AC501B4010E94931AE5C0B0
:102AA000112319F08C2F817001C08695882309F4B9
:102AB000DCC02D2F229526952770220F220F6D2F17
:102AC0006F70862F90E0A0E0B0E04C015D01022E17
:102AD00004C0880C991CAA1CBB1C0A94D2F7D4FF12
:102AE00012C08FE090E0A0E0B0E004C0880F991F12
:102AF000AA1FBB1F2A95D2F7BC01CD016095709526
:102B00008095909503C060E070E0CB01C695C695B6
:102B1000C370C23051F080F4682979298A299B2931
:102B2000C13071F00E94891BA0C0682979298A29C7
:102B30009B290E94A51B99C00E94891BC501B40155
:102B40000E946D1B92C08D2F90E0FC01E05EF109A8
:102B5000E531F10508F04EC0E858FF4F0C94A62669
:102B6000DF708C2F8F71112321F00E94061B8D2F97
:102B700022CF0E94271B8D2F0E943B1476C0112369
:102B800041F0053008F071C08C2F8F710E944C1BF2
:102B90006CC0063008F069C0F7CF112339F08C2FD4
:102BA0008F710E94061B61C01123C9F38C2F8F7196
:102BB0000E94271B5AC0112329F08C2F8F710E946D
:102BC000F11A53C00E94E71A50C0112349F0CF7187
:102BD0008C2F0E94061B63E08C2F0E94901C45C026
:102BE00081E00E94991C023008F43FC082E00E94FC
:102BF000991C3BC0112331F0002389F28D2F0E94D4
:102C00001D1333C0002391F28D2F0E94E5132DC0B8
:102C10004C2F4F706D2FC7010E9447070E940B1A5F
:102C200024C0111122C0CF70C23099F038F4CC23E7
:102C300069F0C130D1F40E943D1F17C0C33061F06C
:102C4000C43099F48D2F0E948F1F0FC00E94201F47
:102C50000CC00E94591F09C00E946C1F06C04C2F57
:102C60004F706D2FC7010E941309DD20E1F00E9413
:102C70008C1C80FD18C0F70112820E94861C0E94E5
:102C8000061BC7010E945F160E94861CDF91CF9130
:102C90001F910F91FF90EF90DF90BF90AF909F90AA
:102CA0008F900C94271BDF91CF911F910F91FF9074
:102CB000EF90DF90BF90AF909F908F9008950F930B
:102CC0001F93CF93DF93EC01988189812B813C8105
:102CD000232B31F08F3F31F481E09F3F19F403C083
:102CE00081E001C080E080FD13C0CE010E9460073A
:102CF000882371F0688179818A810E94631C8C012C
:102D00000E94C11B0E94881AB801CE010E94421481
:102D1000DF91CF911F910F9108950E94541D0E9441
:102D2000641D0E94291D0E947E1D80E090E00E948B
:102D3000001280E090E00C9416120E94441D0C9446
:102D40008D160E94581CE92FE295EF704E2F50E02F
:102D5000FA013297EE30F105B0F4E357FF4F0C94CF
:102D6000A626803F91F018F4803E68F40EC0843FA0
:102D700051F40BC0803E48F0813F29F406C093FB1C
:102D8000882780F9089580E0089581E00895CF9321
:102D9000DF9300D000D01F92CDB7DEB70F900F9019
:102DA0000F900F900F90DF91CF910895CF93DF9305
:102DB00000D000D000D0CDB7DEB726960FB6F8947D
:102DC000DEBF0FBECDBFDF91CF9108951F93CF938C
:102DD000DF93C091840116E080918501C81799F0B6
:102DE000D0E01C9FF0011D9FF00D1124EA57FE4F0B
:102DF0004081518162817381848195810E94D616C0
:102E00002196C770E9CFDF91CF911F91089540912E
:102E1000B6015091B7016091B8017091B9018091EC
:102E2000BA019091BB010C94D616CF938091BB014F
:102E300082958F7009F05FC08091B801882309F4F2
:102E40005AC080918401B09185017091B601A09122
:102E5000B7014091B9015091BA0191E07F3F09F06B
:102E600090E0692FC6E08B1709F445C04115510564
:102E700021F0AF3F21F020E003C021E001C0262F68
:102E800090E020FD35C0C89FF001C99FF00D1124CE
:102E9000EA57FE4F21812A132BC02081271328C017
:102EA0002281211125C0238134812417350710F494
:102EB00021503109241B350B283C3105C8F42091E1
:102EC000BB012F7020612093BB0126E0289FF001F9
:102ED000299FF00D1124E557FE4F80818F7080618E
:102EE000808386EB91E00E945F16CF910C94E616EA
:102EF00001968770B8CFCF910895AF92BF92CF92CD
:102F0000DF92EF92FF920F931F93CF93DF93CDB792
:102F1000DEB761970FB6F894DEBF0FBECDBF8C0150
:102F200085E0F801DE011D9601900D928A95E1F78A
:102F3000D8014C9111965C9111971296EC903091BA
:102F4000B6016091B7018091B9019091BA010097E3
:102F500031F06F3F31F421E03F3F19F403C021E02D
:102F600001C020E0B22FB170BB2E20FD64C1F8017A
:102F7000C380D480A090B801AA2009F4C3C02091D6
:102F8000BB01C816D90628F0D601A81BB90BCD0184
:102F900004C0809590958C0D9D1DFF24F394883C72
:102FA000910580F0F12C207F09F09CC07C2DD98AFE
:102FB000C88A6E2D89890E94C71686EB91E00E940F
:102FC0005F16B4C0822F807F09F054C0561314C01E
:102FD000431312C0FE2CE1100FC02F70206120930C
:102FE000BB010E94071786EB91E00E945F1680915B
:102FF000BB01F80185834FC1CD2831F05F3F31F42B
:1030000081E04F3F19F403C081E001C080E080FD02
:1030100003C081E08E2502C080E090E0F82FF170BF
:10302000FF2E80FF1CC0809184012091850136E035
:10303000821709F40DC190E0389FF001399FF00D1F
:103040001124EA57FE4F6181561306C06081461372
:1030500003C06281E61203C001968770E9CFFE2C9F
:10306000EE2009F418C18091BB0181608093BB01FF
:10307000F12C11C1561309C0431307C0E11005C05C
:103080008091BB01F8018583B0C04D875E878D8537
:103090009E850E94A116882379F1EE2069F1209186
:1030A000BB01822F82958F7090E0029774F080911F
:1030B000B6019091B70198878F831986DB86CA86FF
:1030C0002C87CE0107960E945F1686E0F801A6EBDA
:1030D000B1E001900D928A95E1F70E9415170E94C8
:1030E00007170DC0561761F14D875E878D859E8548
:1030F0000E94A116811138C0C8010E945F16FF24EA
:10310000F394C9C0C816D90608F446C0F601E81BF6
:10311000F90BCF01883C910508F443C0F12C7C2DBC
:10312000D98AC88A6E2D89890E94C716E6EBF1E01C
:1031300086E0DF011D928A95E9F70E940717ABC070
:103140004313D2CFE110D0CF8091BB01F80185832A
:10315000C8010E945F1686E0E6EBF1E0DF011D92F8
:103160008A95E9F7FA2C97C0EE2031F22091BB0145
:10317000822F82958F7090E002970CF4A6CF8091F9
:10318000B6019091B7019A8389831B82DD82CC823C
:103190002E83CE01019697CF809590958C0D9D1D25
:1031A000B9CFFE2CEE2009F4A7CF561333C043133A
:1031B00031C02091BB0120FD24C0822F82958F70E9
:1031C000482F50E041155105E1F0D80115962C9398
:1031D00015974F30510549F08F5F982F9295907F4A
:1031E000822F8F70892B15968C93C8010E945F16D1
:1031F00086E0F801A6EBB1E001900D928A95E1F727
:103200009CCF86E0F801A6EBB1E001900D928A9583
:10321000E1F741C04D875E878D859E850E94A1168E
:10322000811153CF8091BB0181608093BB01C801A4
:103230000E945F1630C0EE2009F45ECF4D875E8796
:103240008D859E850E94A116882309F455CF3DCF18
:103250004D875E878D859E850E94581C292F22955B
:103260002F70223028F49F7039F0811105C00BC0F7
:10327000243028F49F7049F4805E883020F0C80123
:103280000E945F16BF2CFB2C06C0D80115969C919E
:10329000907F91F7F8CF8F2D61960FB6F894DEBF2F
:1032A0000FBECDBFDF91CF911F910F91FF90EF9097
:1032B000DF90CF90BF90AF9008951F93CF93DF938F
:1032C000CDB7DEB72C970FB6F894DEBF0FBECDBFDB
:1032D0004F83588769877A878B879C87CE010796AB
:1032E0000E947D178823D1F09F8188852A853B85A0
:1032F000232B31F08F3F31F481E09F3F19F403C05D
:1033000081E001C080E080FD47C04F81588569851C
:103310007A858B859C850E94D6163EC086E0FE018C
:103320003796DE01119601900D928A95E1F7FF81A3
:10333000E8856A857B856115710531F0EF3F31F4D1
:1033400081E0FF3F19F403C081E001C080E080FD0F
:1033500023C02091850130E0C9010196877099272B
:103360004091840150E084179507F1F1F983EA83D5
:103370007D836C8396E0929FD001939FB00D1124C2
:10338000AA57BE4FFE01319601900D929A95E1F732
:10339000809385010E94E61616E080918401909149
:1033A0008501891771F1189FC00111248A579E4F1A
:1033B0000E947D17882329F1E09184011E9FF0016E
:1033C0001124EA57FE4F40815181628173818481CB
:1033D00095810E94D6168091840190E001968770B5
:1033E000992780938401D9CF0E949D161092850160
:1033F00010928401E6EBF1E086E0DF011D928A95F0
:10340000E9F72C960FB6F894DEBF0FBECDBFDF9163
:10341000CF911F910895EF92FF920F931F93CF9337
:10342000DF938C01892B09F46CC0F12CEE24E3941A
:10343000E8012196F8018491843740F4843008F043
:1034400051C0813081F0823019F15BC0853709F4B9
:1034500044C0A8F19CE7980F903708F052C08F77CE
:103460000E94E51341C00E5F1F4FFE01849190E260
:10347000980F983050F48770FE2D01C0FF0F8A9589
:10348000EAF78F2F0E94571D14C00E941D132DC0F4
:103490000E5F1F4FFE01849190E2980F983060F408
:1034A0008770FE2D01C0FF0F8A95EAF78F2F0E94CB
:1034B0005D1D0E947E1D19C00E94E51316C00E5F9F
:1034C0001F4FFE01C491CC2381F08FE99FE001974B
:1034D000F1F700C00000C150F6CF0E5F1F4FFE0194
:1034E000F49003C00E941D138E018F2D882309F4D0
:1034F0009FCFEFE9FFE03197F1F700C00000815066
:10350000F5CFDF91CF911F910F91FF90EF9008952C
:1035100008956093F2017093F3018093F401909306
:10352000F5010C948D160F931F930091F2011091E9
:10353000F3012091F4013091F501DC01CB01802BE6
:10354000912BA22BB32B8093F2019093F301A093C4
:10355000F401B093F5011F910F910C948D160F9308
:103560001F930091F2011091F3012091F401309129
:10357000F501DC01CB0180239123A223B3238093A7
:10358000F2019093F301A093F401B093F5011F9120
:103590000F910C948D160F931F930091F2011091CF
:1035A000F3012091F4013091F501DC01CB0180277A
:1035B0009127A227B3278093F2019093F301A09360
:1035C000F401B093F5011F910F910C948D16109298
:1035D000EE011092EF011092F0011092F1010C94A3
:1035E0008D1641E050E060E070E004C0440F551FCC
:1035F000661F771F8A95D2F74093EE015093EF0133
:103600006093F0017093F1010C948D1641E050E04D
:1036100060E070E004C0440F551F661F771F8A9555
:10362000D2F78091EE019091EF01A091F001B0915D
:10363000F101482B592B6A2B7B2B4093EE015093C1
:10364000EF016093F0017093F1010C948D1641E04D
:1036500050E060E070E004C0440F551F661F771F04
:103660008A95D2F740955095609570958091EE01BE
:103670009091EF01A091F001B091F10148235923FD
:103680006A237B234093EE015093EF016093F00196
:103690007093F1010C948D1641E050E060E070E011
:1036A00004C0440F551F661F771F8A95D2F780917B
:1036B000EE019091EF01A091F001B091F101482746
:1036C00059276A277B274093EE015093EF016093BF
:1036D000F0017093F1010C948D160F931F930091DC
:1036E000EE011091EF012091F0013091F101DC0128
:1036F000CB01802B912BA22BB32B8093EE019093C7
:10370000EF01A093F001B093F1011F910F910C9480
:103710008D160F931F930091EE011091EF012091F0
:10372000F0013091F101DC01CB0180239123A22330
:10373000B3238093EE019093EF01A093F001B09337
:10374000F1011F910F910C948D160F931F9300910F
:10375000EE011091EF012091F0013091F101DC01B7
:10376000CB0180279127A227B3278093EE01909366
:10377000EF01A093F001B093F1011F910F910C9410
:103780008D1608952FE0929F800D1124E82FE69565
:10379000E695E695877051E001C0550F8A95EAF7E6
:1037A00085E0E89FF0011124E454FE4F20E030E072
:1037B00070E04081CB01022E02C0969587950A9455
:1037C000E2F78170819584278523842781932F5F79
:1037D0003F4F2530310569F708952FE0929F800D06
:1037E0001124682F669566956695982F977085E0E9
:1037F000689FB001112440E050E080E0FB01E40F3D
:10380000F51FE454FE4F208130E0092E02C03695AA
:1038100027950A94E2F721703327042E01C0220F66
:103820000A94EAF7822B4F5F5F4F4530510531F71D
:103830000895CF92DF92EF92FF920F931F93CF9351
:10384000DF938C01C090EE01D090EF01E090F00189
:10385000F090F1018091F2019091F301A091F401B7
:10386000B091F501C82AD92AEA2AFB2ACFE1D0E093
:10387000D701C6010C2E04C0B695A79597958795DC
:103880000A94D2F780FD04C0219790F780E007C02A
:10389000B8018C2F0E942F090197B1F38C2FDF9173
:1038A000CF911F910F91FF90EF90DF90CF900895EF
:1038B000CF93DF93EC010E94191CBE010E942F09D7
:1038C000DF91CF9108951F93CF93DF93EB019091F8
:1038D0008301992321F0CB010E94581C13C0882337
:1038E00049F0CB010E94191C182F682FCE010E94AD
:1038F000C21B04C0CB010E94ED1B182FBE01812FFB
:103900000E942F09DF91CF911F9108958091F601B8
:1039100085958595859508958091F6018770089520
:1039200098E0899F90011124262B2093F6010C9496
:10393000061B2091F601809582238093F601982F33
:10394000977069F430E0482F082E000C550B2417AF
:10395000350729F08595859585950C94271B089545
:103960009091F601977081E009F480E008959091BC
:103970000D019923F1F09091690297FF1AC0982FD9
:103980009695969596959F3181F1E0910101F09180
:103990000201E90FF11D877021E030E0A90102C0AA
:1039A000440F551F8A95E2F7CA019181892B8183C3
:1039B00008952091010130910201F90132969FEFA3
:1039C00040E05191851789F09F3F19F4511101C0D2
:1039D000942F4F5F4E31A9F79F3F39F0F901E90F5E
:1039E000F11D97FDFA9582830895089590910D0138
:1039F0009923F9F09091690297FF1BC0982F969533
:103A0000969596959F3121F1E0910101F091020187
:103A1000E90FF11D877021E030E0A90102C0440FD9
:103A2000551F8A95E2F7CA01809591818923818388
:103A30000895E0910101F09102019F01225E3F4F44
:103A40009281891301C012823196E217F307C1F700
:103A5000089581E090E0E0910101F0910201E80F0A
:103A6000F91F1082019680329105A9F7089590916F
:103A70001A02892B80931A020895809590911A0258
:103A8000892380931A02089510921A020895909142
:103A90001902892B8093190208958095909119023B
:103AA0008923809319020895109219020895909124
:103AB0001802892B8093180208958095909118021E
:103AC0008923809318020895109218020895809314
:103AD000F70108951092F7010895809101019091E6
:103AE0000201FC0131969C01205E3F4F80E09191E4
:103AF00091118F5FE217F307D1F70895E09101016B
:103B0000F091020180911A028083E0910101F0910D
:103B10000201908180911902892B8083E09101013B
:103B2000F0910201908180911802892B808380910D
:103B3000F701882361F0E0910101F0910201908189
:103B4000892B80830E946D1D81111092F701809155
:103B50000101909102010C94F5116DEE7EEF80E071
:103B600090E00E94DE2660E082E090E00E94C026A5
:103B700060E083E090E00E94C02660E084E090E096
:103B80000E94C02660E085E090E00E94C02660E0D0
:103B900086E090E00E94C02640E050E0BA0188E054
:103BA00090E00C94D22680E090E00E94BA2621E0BA
:103BB0008D3E9E4F09F020E0822F089582E090E034
:103BC0000C94AC2683E090E00C94AC2684E090E06A
:103BD0000C94AC26682F84E090E00C94C02686E01C
:103BE00090E00C94AC26682F86E090E00C94C02600
:103BF00080917002843051F110921C0220E488E11F
:103C000090E00FB6F894A895809360000FBE2093C3
:103C1000600080E00E94E50880E00E94110983B7FF
:103C2000817F846083BF83B7816083BF78948895E8
:103C300083B78E7F83BF0FB6F894A89580916000FC
:103C4000886180936000109260000FBE089508950F
:103C50000C94271ECF930E94281E0E94ED0B0E94F9
:103C6000271EC0E08C2F0E94A40C892B29F4CF5F63
:103C7000C530C1F780E001C081E0CF9108950E9476
:103C80009D160E940F1F0E94E9110C9411091F92AA
:103C90000F920FB60F9211248F939F93AF93BF9300
:103CA00080911C02811113C080916502909166027F
:103CB000A0916702B09168024196A11DB11D809349
:103CC000650290936602A0936702B0936802BF9169
:103CD000AF919F918F910F900FBE0F901F901895ED
:103CE00082E084BD93E095BD9AEF97BD80936E000E
:103CF00008952FB7F8948091650290916602A09183
:103D00006702B09168022FBF0895CF92DF92EF92C1
:103D1000FF920F931F932FB7F89440916502509133
:103D2000660260916702709168022FBF6A017B0191
:103D3000EE24FF248C0120E030E0C016D106E2061C
:103D4000F30610F4415051099A01281B390BC9019F
:103D50001F910F91FF90EF90DF90CF9008951F92E9
:103D60000F920FB60F9211248F939F93AF93BF932F
:103D70008091650290916602A0916702B0916802FD
:103D80000196A11DB11D8093650290936602A093D8
:103D90006702B0936802BF91AF919F918F910F908E
:103DA0000FBE0F901F9018950E947B23F8942FEF61
:103DB00087EA91E6215080409040E1F700C0000082
:103DC00087E090EBDC018093790290937A02A093D4
:103DD0007B02B0937C029CE088E10FB6F894A89532
:103DE000809360000FBE90936000FFCF0E94D31DB0
:103DF000811102C00E94AD1D0E94DE1D80931B0236
:103E00000E94E61D90E090936A02809369020E94EE
:103E1000E21D682F70E080E090E00C94891A0E9407
:103E2000D31D811102C00E94AD1D0E94EF1D809321
:103E30006B0280FF02C0869501C080E00C94E5080B
:103E400020916B02822F8695482F50E04330510518
:103E500044F48F5F982F990F822F8170892B809364
:103E60006B0280916B02816080936B020E94F31D54
:103E700080916B0286950C94E50880916B02982FD7
:103E8000969591F09158990F8170892B80936B02D0
:103E90008E7F91E009F490E080916B0290FB80F9B5
:103EA00080936B020E94F31D80916B0286950C94A7
:103EB000E50880916B02982F909590FB80F9809394
:103EC0006B020E94F31D80916B0280FF02C08695F9
:103ED00001C080E00C94E50890916B02892F8695D3
:103EE0008F5F8F779170843028F4880F892B8093AF
:103EF0006B0202C090936B0280916B028E7F91E007
:103F000009F490E080916B0290FB80F980936B0242
:103F10000E94F31D80916B0286950C94E508209118
:103F20006B02922F96958927982F990F822F817077
:103F3000892B80936B028E7F91E009F490E0809151
:103F40006B0290FB80F980936B020E94F31D8091BD
:103F50006B0286950C94E50880913D0208950895C2
:103F6000CF93DF9300D01F92CDB7DEB720917002C0
:103F7000243021F523E029839B838A8382E0809388
:103F8000E9008FEF9091E800815095FD06C095ED16
:103F90009A95F1F700008111F5CF8091E80085FF37
:103FA0000DC040E050E063E070E0CE0101960E9459
:103FB000EA218091E8008E778093E8000F900F90BF
:103FC0000F90DF91CF910895CF93DF9300D01F9290
:103FD000CDB7DEB720917002243029F522E0298385
:103FE000805891099B838A832093E9008FEF9091F9
:103FF000E800815095FD06C095ED9A95F1F7000017
:104000008111F5CF8091E80085FF0DC040E050E0C0
:1040100063E070E0CE0101960E94EA218091E80001
:104020008E778093E8000F900F900F90DF91CF91E3
:104030000895CF93DF9320917002243009F048C097
:10404000EC0180910D018823E1F08091690287FFE6
:1040500018C083E08093E9008FEF9091E8008150D1
:1040600095FD06C095E19A95F1F700008111F5CF15
:104070008091E80085FF2CC040E050E060E270E0F5
:1040800017C081E08093E9008FEF9091E8008150A4
:1040900095FD06C095ED9A95F1F700008111F5CFD9
:1040A0008091E80085FF14C040E050E068E070E0D7
:1040B000CE010E94EA218091E8008E778093E8008B
:1040C00080E2FE01ADE1B2E001900D928A95E1F748
:1040D000DF91CF91089580916F02811109C00E94F4
:1040E0007B230E94D8238091E20084608093E200C9
:1040F000089510926F020895089508950C943F1E3C
:1041000042E061EC81E00E94F42242E061EC82E056
:104110000E94F42242E261EC83E00C94F42280914C
:104120007202833009F455C030F4813071F082306E
:1041300009F48EC008958A3009F47AC08B3009F4EE
:1041400060C0893009F09CC020C080917102813A22
:1041500009F096C08091E800877F8093E800809105
:10416000750290917602892B21F460E28DE192E054
:1041700003C060E080E090E070E00E943522809112
:10418000E8008B778093E800089580917102813276
:1041900009F076C08091750290917602009719F02F
:1041A000029709F06DC08091E800877F8093E80056
:1041B0008091E80082FD05C0809170028111F8CFE6
:1041C0005FC08091F10080933D028091E8008B7781
:1041D00053C080917102813A09F052C080917502FA
:1041E00090917602892B09F04BC08091E800877F7F
:1041F0008093E8008091E80080FFFCCF80910D0162
:1042000036C0809171028132D9F58091750290910A
:104210007602892BA9F58091E800877F8093E800DA
:104220000E9429238091730280930D010C949D16A6
:1042300080917102813221F58091E800877F80931F
:10424000E8000E9429238091740280933E02089521
:1042500080917102813AA1F48091E800877F809378
:10426000E8008091E80080FFFCCF80913E028093BF
:10427000F1008091E8008E778093E8000C94292368
:10428000089584B7877F84BF0FB6F894A89580916E
:104290006000886180936000109260000FBE80E82B
:1042A00080936100109261000E942D120E947B2376
:1042B0000E94D8238091E20084608093E200789489
:1042C0000E9463260E942F1283E091E00E94E41175
:1042D00080917002853069F40E94F81D80916E0211
:1042E0008823B1F30E942A1E882391F30E94D421CF
:1042F000EFCF0E9439120E94B111EACF292F332744
:1043000023303105C9F060F42130310581F02230CD
:10431000310509F041C084E590E027EE3CE040C063
:1043200021323105E1F02232310531F135C082E12F
:1043300090E02BE33DE034C099278130910549F0AE
:1043400028F0029749F5E7EBFCE005C0E3EEFCE05E
:1043500002C0EBECFCE0849190E09F0121C063304F
:10436000D8F4E62FF0E0EE0FFF1FE55DFE4F208151
:10437000318189E090E014C0633070F470E0FB019B
:10438000EE0FFF1FEB5DFE4F20813181FB01EE5DE3
:10439000FE4F808190E004C080E090E020E030E0BB
:1043A000FA0131832083089580E189BD82E189BDCE
:1043B00009B400FEFDCF8091D8008F7D8093D80096
:1043C0008091E00082608093E0008091E00081FDB8
:1043D000FCCF0895CF92DF92EF92FF920F931F933D
:1043E000CF93DF93EC018B017A010E944823811166
:1043F00033C0E114F10439F0F70180819181081B89
:10440000190BC80FD91FC12CD12C0115110519F199
:104410008091E80085FD16C08091E8008E7780933A
:10442000E800E114F10449F0F70180819181C80EA0
:10443000D91ED182C08285E00FC00E944823882304
:1044400021F30AC089918093F10001501109FFEF17
:10445000CF1ADF0ADACF80E0DF91CF911F910F9161
:10446000FF90EF90DF90CF900895209177023091E8
:1044700078022617370748F06115710539F4209145
:10448000E8002E772093E80001C0B901FC0120E08C
:104490006115710579F1809170028823F1F1853001
:1044A000F1F18091E80083FD3CC08091E80082FD3D
:1044B0002EC08091E80080FFEBCF2091F300809127
:1044C000F20090E0922B6115710551F08830910552
:1044D00038F421912093F100615071090196F3CFD6
:1044E00021E0089709F020E08091E8008E77809322
:1044F000E800CECF2111CFCF0AC08091700288236F
:1045000061F0853061F08091E80083FD0AC0809100
:10451000E80082FFF2CF80E0089582E0089583E012
:10452000089581E00895209177023091780226174E
:10453000370748F06115710539F42091E8002E77AE
:104540002093E80001C0B901FC0120E0611571056C
:1045500091F180917002882309F440C0853009F4FC
:104560003FC08091E80083FD3DC08091E80082FD5E
:104570002FC08091E80080FFE9CF2091F300809167
:10458000F20090E0922B6115710559F08830910589
:1045900040F424912093F100319661507109019605
:1045A000F2CF21E0089709F020E08091E8008E77B3
:1045B0008093E800CBCF2111CCCF0AC0809170024C
:1045C000882361F0853061F08091E80083FD0AC0A6
:1045D0008091E80082FFF2CF80E0089582E00895A4
:1045E00083E0089581E00895982F973068F59093BF
:1045F000E900981739F07091EC002091ED0050918E
:10460000F00003C0242F762F50E021FD02C09F5FF1
:10461000ECCF3091EB003E7F3093EB003091ED001A
:104620003D7F3093ED003091EB0031603093EB0033
:104630007093EC002093ED005093F0002091EE0079
:1046400027FDE5CF80E008958F708093E90081E039
:1046500008958091710287FF11C08091E80082FD6A
:1046600005C0809170028111F8CF11C08091E800DF
:104670008B770BC080917002882349F08091E8000D
:1046800080FFF8CF8091E8008E778093E80008954E
:104690002091E4003091E50095E64091EC00842FF4
:1046A000817040FF23C08091E80080FD1DC0809193
:1046B0007002882399F0853099F08091EB0085FD98
:1046C00011C04091E4005091E5002417350729F30B
:1046D000915011F09A01E1CF84E0089582E00895AD
:1046E00083E0089581E0089580E008954091E80016
:1046F00042FFDDCF08950E94E9230E94F123E0EEFE
:10470000F0E0808181608083E8EDF0E080818F7748
:10471000808319BCA7EDB0E08C918E7F8C93808153
:104720008F7E808310926F0208950F931F93CF9313
:10473000DF930E94E9230E94F123C8EDD0E0888135
:104740008F77888388818068888388818F7D88833C
:1047500019BC1092700210926C0210926E021092AC
:104760006D0200EE10E0F80180818B7F80838881EC
:104770008160888342E060E080E00E94F422E1EE04
:10478000F0E080818E7F8083E2EEF0E080818160C6
:104790008083808188608083F80180818E7F808320
:1047A000888180618883DF91CF911F910F91089557
:1047B000E8EDF0E080818F7E8083E7EDF0E080819E
:1047C0008160808384E082BF81E080936F020C94DB
:1047D0009523E8EDF0E080818E7F80831092E200E7
:1047E00008951092DA001092E10008951F920F923E
:1047F0000FB60F9211242F933F934F935F936F93B4
:104800007F938F939F93AF93BF93EF93FF93809189
:10481000E10082FF0BC08091E20082FF07C080911F
:10482000E1008B7F8093E1000E9462268091DA0094
:1048300080FF1FC08091D80080FF1BC08091DA00EC
:104840008E7F8093DA008091D90080FF0DC080E1D7
:1048500089BD82E189BD09B400FEFDCF81E080936E
:1048600070020E946B2005C019BC109270020E9459
:1048700079208091E10080FF19C08091E20080FFE3
:1048800015C08091E2008E7F8093E2008091E2006B
:1048900080618093E2008091D80080628093D8008C
:1048A00019BC85E0809370020E947D208091E10018
:1048B00084FF30C08091E20084FF2CC080E189BD7C
:1048C00082E189BD09B400FEFDCF8091D8008F7DC3
:1048D0008093D8008091E1008F7E8093E1008091E9
:1048E000E2008F7E8093E2008091E20081608093FD
:1048F000E20080916C02882311F084E007C080916F
:10490000E30087FD02C081E001C083E08093700274
:104910000E947E208091E10083FF29C08091E20007
:1049200083FF25C08091E100877F8093E10082E0D2
:104930008093700210926C028091E1008E7F8093D0
:10494000E1008091E2008E7F8093E2008091E2009E
:1049500080618093E20042E060E080E00E94F42207
:104960008091F00088608093F0000E947C20FF918D
:10497000EF91BF91AF919F918F917F916F915F91D7
:104980004F913F912F910F900FBE0F901F90189550
:104990001F920F920FB60F9211242F933F934F93B4
:1049A0005F936F937F938F939F93AF93BF93CF93B7
:1049B000DF93EF93FF93C091E900CF708091EC00FB
:1049C000D82FD17080FDD0E81092E9008091F000DE
:1049D000877F8093F00078940E940C251092E90064
:1049E0008091F00088608093F000CD2BCF70C09351
:1049F000E900FF91EF91DF91CF91BF91AF919F912E
:104A00008F917F916F915F914F913F912F910F9077
:104A10000FBE0F901F9018951F93CF93DF93CDB7C4
:104A2000DEB7AA970FB6F894DEBF0FBECDBFE1E7A1
:104A3000F2E08091F100819322E0E937F207C9F7B3
:104A40000E948F208091E80083FF24C18091710231
:104A500090917202492F50E04A30510508F01AC176
:104A6000FA01E556FF4F0C94A626803881F0823873
:104A700009F010C1809175028F708093E9008091D8
:104A8000EB0085FB882780F91092E90006C0809131
:104A90006D0290916E02911182609091E800977F73
:104AA0009093E8008093F1001092F100C8C0282F85
:104AB0002D7F09F0EFC0882319F0823061F0EAC041
:104AC00080917302813009F0E5C0933009F080E0F5
:104AD00080936E022BC080917302811127C0809158
:104AE00075028F7009F4D6C08093E9002091EB0025
:104AF00020FF1CC0933021F48091EB00806214C031
:104B00009091EB0090619093EB0021E030E0A901DF
:104B100002C0440F551F8A95E2F74093EA001092B5
:104B2000EA008091EB0088608093EB001092E9002E
:104B30008091E800877F86C08111ACC0109173021C
:104B40001F778091E3008078812B8093E300809130
:104B5000E800877F8093E8000E9429238091E80085
:104B600080FFFCCF8091E30080688093E300111107
:104B700002C082E001C083E0809370028BC0805845
:104B8000823008F087C080917302909174028C3D4E
:104B900053E0950779F583E08A838AE289834FB7EA
:104BA000F894DE01139620E03EE051E2E32FF0E0BE
:104BB00050935700E49120FF03C0E295EF703F5FF0
:104BC000EF708E2F90E0EA3010F0C79601C0C096CB
:104BD0008D939D932F5F243149F74FBF8091E8005B
:104BE000877F8093E8006AE270E0CE0101960E9420
:104BF000352214C0AE014F5F5F4F609175020E9475
:104C00007E21BC01892B09F445C09091E800977F73
:104C10009093E80089819A810E9493228091E80014
:104C20008B778093E80036C08038A1F58091E8004A
:104C3000877F8093E80080916C028093F1008091DF
:104C4000E8008E778093E8000E94292323C0811119
:104C500021C0809173029091740299270297D4F435
:104C60008091E800877F8093E800809173028093B1
:104C70006C020E94292380916C02811106C08091F0
:104C8000E30087FD02C081E001C084E080937002F0
:104C90000E9480208091E80083FF0AC08091E80094
:104CA000877F8093E8008091EB0080628093EB0027
:104CB000AA960FB6F894DEBF0FBECDBFDF91CF919D
:104CC0001F9108950895CF93809170028823A1F0D9
:104CD000C091E900CF709091EC00892F817090FD18
:104CE00080E8C82B1092E9008091E80083FD0E94C3
:104CF0000C25CF70C093E900CF910895AA1BBB1B70
:104D000051E107C0AA1FBB1FA617B70710F0A61BCB
:104D1000B70B881F991F5A95A9F780959095BC01EC
:104D2000CD01089597FB072E16F4009407D077FD68
:104D300009D00E947E2607FC05D03EF4909581950F
:104D40009F4F0895709561957F4F0895EE0FFF1F57
:104D50000590F491E02D0994F999FECF92BD81BDA3
:104D6000F89A992780B50895A6E1B0E044E050E0B4
:104D70000C94E626A8E1B0E042E050E00C94E62670
:104D8000262FF999FECF92BD81BDF89A019700B404
:104D9000021639F01FBA20BD0FB6F894FA9AF99AA4
:104DA0000FBE08950396272F0E94C1260E94C02699
:104DB000252F0E94C126242F0C94C1260196272F4F
:104DC0000E94C1260C94C026DC01CB01FC01F9999C
:104DD000FECF06C0F2BDE1BDF89A319600B40D9247
:0C4DE00041505040B8F70895F894FFCF00
:104DEC00FFF801AC1F1920AF1FE41FB01F019091F9
:104DFC00929395366667F1F0C6333231303534977D
:104E0C009694403639BC0D860D4D0DF90C120D2BB8
:024E1C000D0087
:00000001FF
