:100000000C94D0030C9417040C9417040C9417044C
:100010000C9417040C9417040C9417040C941704F4
:100020000C9417040C9417040C946B290C943D2A1F
:100030000C94B2210C9417040C9417040C9417041C
:100040000C9417040C9417040C9417040C941704C4
:100050000C9443110C94FF210C9417040C94170476
:100060000C9417040C9417040C9417040C941704A4
:100070000C9417040C9417040C9417040C94170494
:100080000C9417040C9417040C9417040C94170484
:100090000C9417040C9417040C9417040C94170474
:1000A0000C9417040C9417040C9417043B0F3E0F88
:1000B000460F4B0F500F550F5A0F5F0F640F690F0C
:1000C0006E0F730F750F780F7B0F7E0F810F840FEC
:1000D000860F8B0FAB10AD10B210B510B810BB105F
:1000E000BE1015171517471747179417B217D318CF
:1000F000D318BD17521863186318C318D318D31830
:10010000CC1873197319851985197C1985198519E6
:100110008519731973198119851985198119AA2AE5
:10012000D12AC92BD12AC92B1D2B402BC92B972B88
:10013000A62B29001E001F00200021002200230002
:1001400024002500260027002D002E006400350025
:100150002B0014001A000800150017001C001800DE
:100160000C00120013002F0030002A000000E000F5
:1001700004001600070009000A000B000D000E0025
:100180000F0033003400000028000000E1000000F0
:100190001D001B00060019000500110010003600AC
:1001A000370038000000E50001510000E200E300E4
:1001B0000000000000002C420000000000000000D1
:1001C0002C00000D00000000A5003A003B003C00A0
:1001D0003D003E003F00400041004200430044001B
:1001E000450049004C003900C25CC35CC55CC75C7B
:1001F000C95CCB5C0000460047004800520000008C
:10020000530000000000AA00A900A800B0000000F0
:10021000000000004A004B0050004F0000000000AA
:10022000000000000000C45CC65CC85CCA5CCC5C1A
:10023000000000004D004E005100000000000100D1
:1002400000000000000000000000000000000000AE
:10025000000000000000AD00000000000000005C95
:100260003A003B003C003D003E003F0040004100A2
:100270004200430044004500000000000000000070
:100280000000000000000000FB00FA00F900FC0084
:10029000000000000000000000000000000000005E
:1002A0000000000000005000510052004F0000000C
:1002B000000000000000000000000000000000003E
:1002C00000000000000013500000000000000000CB
:1002D000000000000000000000000000000000001E
:1002E000000001000000000000000000000000000D
:1002F00000000000000000000000000000000000FE
:1003000000000000000000000000000000000000ED
:100310000000000000000000000000000000FC00E1
:10032000F900FA00FB0000000000000000000000DF
:10033000000000000000000000000000F200F100DA
:10034000F000F300000000000000000000000000CA
:10035000000000000000000000000000F400F500B4
:10036000000000000000000000000000000000008D
:10037000000000000000000010500000000000001D
:100380000000000000000000000032190A00047F95
:100390003F1F643214643214783C1E1E140A052276
:1003A00023252628292A2C2D2F3032333536383A6A
:1003B0003B3D3E4042434547494A4C4E50515355C0
:1003C00057595A5C5E6062646668696B6D6F7173E1
:1003D0007577797B7D7F81838587898A8C8E9092E2
:1003E0009496989A9C9E9FA1A3A5A7A8AAACAEAFED
:1003F000B1B3B4B6B8B9BBBCBEBFC1C2C3C5C6C732
:10040000C9CACBCCCDCED0D1D2D2D3D4D5D6D7D7E2
:10041000D8D9D9DADADBDBDBDCDCDCDCDCDDDDDD2A
:10042000DDDCDCDCDCDCDBDBDBDADAD9D9D8D7D726
:10043000D6D5D4D3D2D2D1D0CECDCCCBCAC9C7C6D3
:10044000C5C3C2C1BFBEBCBBB9B8B6B4B3B1AFAE11
:10045000ACAAA8A7A5A3A19F9E9C9A9896949290B7
:100460008E8C8A89878583817F7D7B79777573718F
:100470006F6D6B6968666462605E5C5A595755536C
:1004800051504E4C4A4947454342403E3D3B3A3825
:1004900036353332302F2D2C2A292826252322FFCA
:1004A000AA7F55400000000000000000000000018D
:1004B000010203040506080A0C0F1114181C20245D
:1004C000292E33393F464C535B626A7179818A9297
:1004D0009AA2AAB2B9C1C8CFD5DCE1E7EBF0F4F734
:1004E000FAFCFDFEFFFEFDFCFAF7F4F0EBE7E1DCC1
:1004F000D5CFC8C1B9B2AAA29A928A8179716A622B
:100500005B534C463F39332E2924201C1814110FFD
:100510000C0A0806050403020101000000000000A7
:1005200000000000000101010101010101010202BE
:100530000202020202020203030303030303030491
:10054000040404040404050505050506060606065C
:10055000070707070708080808090909090A0A0A16
:100560000B0B0B0C0C0C0D0D0D0E0E0E0F0F0F10B8
:100570001011111112121313141415151616171742
:10058000181819191A1A1B1B1C1D1D1E1E1F2020AE
:10059000212222232424252626272829292A2B2CF8
:1005A0002D2D2E2F30313232333435363738393A1B
:1005B0003B3C3D3E3F404142434445464748494A13
:1005C0004C4D4E4F50515354555658595A5B5D5EE1
:1005D0005F616264656668696B6C6D6F707273757C
:1005E00077787A7B7D7E8082838587888A8C8E8FE0
:1005F00091939596989A9C9EA0A2A3A5A7A9ABAD0E
:10060000AFB1B3B5B7BABCBEC0C2C4C6C9CBCDCFFB
:10061000D1D4D6D8DBDDDFE2E4E7E9EBEEF0F3F5A9
:10062000F8FAFDFF04033000000014035300360005
:1006300030002D0058002D005200470042000000FD
:100640001003530065006E007400720061007100B9
:1006500000000403090409023B00020100A0FA099A
:1006600004000001030101000921110100012240E1
:10067000000705810308000A0904010001030000C6
:100680000009211101000122BC000705820320009E
:100690000A1201100100000008EDFE606001000177
:1006A00002030105010902A10185020901A100055A
:1006B0000919012905150025019505750181029586
:1006C00001750381010501093009311581257F95E7
:1006D000027508810609381581257F950175088105
:1006E00006050C0A38021581257F950175088106DB
:1006F000C0C005010980A101850319012AB70015B1
:100700000126B700950175108100C0050C0901A1F3
:1007100001850419012AA002150126A00295017580
:10072000108100C005010906A1018505050719E032
:1007300029E71500250195087501810205071900B3
:1007400029EF1500250195F07501810205081901B1
:100750002905950575019102950175039101C00563
:10076000010906A101050719E029E71500250195F2
:100770000875018102950175088101050719002995
:10078000FF150026FF009506750881000508190170
:100790002905950575019102950175039101C00028
:1007A00011241FBECFEFDAE0DEBFCDBF04B603FEDB
:1007B00027C080913B0390913C03A0913D03B091F1
:1007C0003E038730904BA740B04BD1F410923B03CF
:1007D00010923C0310923D0310923E0314BE84B766
:1007E000877F84BF0FB6F894A895809160008861D8
:1007F00080936000109260000FBEE0E0F8E309957E
:1008000011E0A0E0B1E0E4EFFAE502C005900D923E
:10081000AE3CB107D9F723E0AEECB1E001C01D92C8
:10082000AB33B207E1F70E94A9260C94782D0C9403
:10083000000081E0089581E008950C941B04089560
:100840000C941F041F93CF93DF9300D000D01F920E
:10085000CDB7DEB749835A836B83309127028981F4
:100860009A81311114C0662359F0222349F00E9465
:10087000AF1E182F682F89819A810E94581E03C0CD
:100880000E94831E182F69817A81812F04C00E94E3
:10089000AF1E69817A810F900F900F900F900F908B
:1008A000DF91CF911F910C94E404FC01262F40812D
:1008B00051816281738184810C942204CF93DF93F0
:1008C000EC0160E00E945504BE01DF91CF910C94D1
:1008D00020040E944B220E94E71F811102C00E9447
:1008E00090200E94B2110C9403070C94FF06089507
:1008F0000C94770481E008950C947A04CF93C82F68
:100900000E9478048C2F0E947C04CF910895089552
:100910000E9461190E9487042FEF84E39CE021501C
:1009200080409040E1F700C000000C9425220F9316
:100930001F93CF93DF93EC0161E00E9455048C017B
:10094000BE010E941D048823A9F1BE01C8010E94B6
:100950009C10882379F1BE01C8010E948B12882364
:1009600049F1BE01C8010E94DD12882319F1BE01C0
:10097000C8010E9408148823E9F0BE01C8010E9442
:10098000240F8823B9F08A81882369F001158CE54A
:10099000180731F00E3D1C4531F40E9490200AC02A
:1009A0000E94880407C0CE01DF91CF911F910F9163
:1009B0000C94190480E0DF91CF911F910F9108955D
:1009C00080E090E0089508952BE4829FC0011124F7
:1009D000FC012FE0729FE00DF11D1124E60FF11DC7
:1009E000EE0FFF1FEE5CFE4F859194910895880FE6
:1009F000991FFC01E657FC4F859194910895CF9380
:100A0000DF930E94E4040E941706EC0181159045D3
:100A100008F041C0C11580E4D80708F0D1C0C83E35
:100A2000D10510F5C03ED10508F0FDC0C83AD1058A
:100A300078F4C53AD10508F0A2C0C130D10509F457
:100A4000F2C008F4EEC0C430D10508F0ECC0E9C033
:100A5000CF3BD10508F49BC0C03CD10508F4E1C0F0
:100A6000CE01805C91099EC0C11590E2D90758F46F
:100A7000C11521E0D20708F0D6C0C03FD10508F467
:100A8000D0C0D065D0C0C11580E3D80708F08EC0B3
:100A9000CE019F7087C0C11595E5D90708F043C006
:100AA000C11524E5D20708F0A2C0C11582E5D80718
:100AB00008F5C11591E5D90708F085C0CE0174E0AD
:100AC000969587957A95E1F783709C2F937021E036
:100AD00030E002C0220F331F9A95E2F73C68382BB2
:100AE000CF70C695C69580E2C89FE0011124C22B45
:100AF000D32B99C09E01237033278C2F8695869522
:100B0000C115D34508F064C0C1E0D0E002C0CC0FED
:100B1000DD1F2A95E2F720E2829FC0011124C82B35
:100B2000D92BDC6880C0C11529E5D207A0F4C11516
:100B300088E5D80708F060C0C11596E5D90708F028
:100B400070C08C2F0E94AB068F71C82FD0E0DC2FB5
:100B5000CC27D06268C0C1152AE5D20708F451C07D
:100B6000CE0190568115904208F05BC08D2F8F7199
:100B70000E94AB06DD27D0628F71D82B54C0C55AB6
:100B8000D0E0C55ADE4FC881D0E0D0644CC0C85A0E
:100B9000D0E0CC0FDD1FC35DDE4F0990D881C02DA2
:100BA000D46441C00E94F704EC013DC0CE019927F6
:100BB000D3FF03C0EC01D86C36C0EC01D06C33C05D
:100BC000DF70D06A30C0DC2FCC27C16FD06A2BC059
:100BD000C1E0D0E002C0CC0FDD1F2A95E2F720E291
:100BE000829FC0011124C82BD92BDA681CC0DC2FCE
:100BF000CC27C46FD06A17C0DC2FCC27C06FD06A57
:100C000012C08C2F8F700E94AB0694E0D695C795CA
:100C10009A95E1F7CF70D0E0DC2FCC27D069C82BB4
:100C200002C0C0E0D0E0CE01DF91CF9108958238BC
:100C3000910569F1B0F48133910509F46DC048F470
:100C40008932910509F463C08A32910509F469C0BB
:100C500008958533910509F455C089339105B9F09C
:100C60000895833E910569F138F4803E9105B1F015
:100C7000823E910509F10895863E9105A9F1873ECE
:100C80009105B9F1843E910509F064C023C020911B
:100C90002C0320FD4FC021FD4DC0089580912C03F1
:100CA00080FD44C080912D0380FF44C080912C03BF
:100CB00084FD42C083EE4DC080912C0382FF38C07A
:100CC000F5CF80912C0382FD33C080912D0380FDF0
:100CD00031C0ECCF80912D0381FF32C080912C0375
:100CE00084FD2AC087EE35C080912C0383FF26C087
:100CF000F5CF80912C0383FD21C080912D0381FDD0
:100D00001FC0ECCF80912C0385FD1CC01DC08091BD
:100D10002C0385FD19C016C080912C0386FD16C0DA
:100D200017C080912C0386FD13C010C089E311C049
:100D300082EE0FC080EE0DC080E00BC086EE09C0D1
:100D400084EE07C089E205C085E303C08AE201C0E2
:100D500081E390E0089590912C0392FF0DC0282F1D
:100D60002871283019F4877F846006C0282F2471E9
:100D7000243011F48B7F886093FF0DC0282F2871D9
:100D8000283119F4877E846106C0282F247124310C
:100D900011F48B7E886120912D0320FF0DC0382F28
:100DA0003871383019F4877F816006C0382F31716F
:100DB000313011F48E7F886021FF0DC0282F2871FB
:100DC000283119F4877E816106C0282F21712131D5
:100DD00011F48E7E886194FD877E0895E82FF0E0FF
:100DE000EE0FFF1FE650FD4F808191810895089519
:100DF00080EA8A95F1F7089508950C94FC060C9406
:100E0000FD060C94FC060C940107CF93DF93ADE62E
:100E1000B1E042E751E061E070E08D91E82FE295AA
:100E2000EF70F0E021A18F70EB0102C0CC0FDD1F4D
:100E30008A95E2F7CE019C2F9095922391A392A1DF
:100E4000892B82A34A175B0741F7AEE5B1E04DE677
:100E500051E061E070E08D91E82FE295EF70F0E0F5
:100E600021A18F70EB0102C0CC0FDD1F8A95E2F744
:100E7000CE019C2F9095922391A392A1892B82A3BE
:100E80004A175B0741F7E0EFF2E0AAEFB2E08AEF22
:100E900092E0119211921D921D928E179F07C9F731
:100EA00085E00E94E407DF91CF910C9469046F9272
:100EB0007F928F929F92AF92BF92CF92DF92EF92EA
:100EC000FF920F931F93CF93DF938DE6C82E81E09F
:100ED000D82E00EF12E09AEFA92E92E0B92E712CD5
:100EE00088248394912CF60181916F01C82FC295BB
:100EF000CF70D0E099A18F70740101C0EE0C8A957B
:100F0000EAF7892F8E2989A38AA16E2C6094862105
:100F10008AA30E94F806EEE5F1E040E050E020E010
:100F200030E06191A62FA295AF70B0E090968C91C1
:100F300090E06F7002C0959587956A95E2F780FD05
:100F400008C0C401042E02C0880F991F0A94E2F75A
:100F500002C080E090E0282B392B4F5F5F4F4F306D
:100F60005105F9F689A1682269A28AA1E82AEAA2B4
:100F7000F801808191812817390721F0318320837E
:100F800081E001C080E0782A0E5F1F4FA016B106F5
:100F900009F0A9CF272D45E06AEF72E080EF92E0DB
:100FA0000E94E5070E947504872DDF91CF911F9164
:100FB0000F91FF90EF90DF90CF90BF90AF909F90F8
:100FC0008F907F906F9008950895FF920F931F93D5
:100FD000CF93DF93F82E092F162FD72FC42F22235C
:100FE00049F081E08093D0010E94E4219093CF01E9
:100FF0008093CE018091D0018823D9F08091CE01D9
:101000009091CF010E94F021069798F0EF2DF02FDC
:10101000A12FBD2F80E090E04C2F50E08417950762
:1010200034F4219131912D933D930196F7CF109295
:10103000D001DF91CF911F910F91FF900895EF9212
:10104000FF920F931F93CF93DF938B01682F1111A2
:101050000AC0442329F0E82FF0E0EC5DFA4F6491D8
:10106000762F862F75C0212F30E0E82FF0E0442343
:1010700021F0EC5DFA4FE491F0E046E0049FC001FE
:101080001124CFEFD0E0BE010E94272C4BEA46038B
:10109000C001479F900D1124800F911D800F911D5D
:1010A000982F990F890FAE01421B530B4E9FD00111
:1010B0004F9FB00D5E9FB00D11249B2F189FA00174
:1010C0001124452F55278E01041B150B0E9FA001DF
:1010D0000F9F500D1E9F500D11247E01E81AF1083C
:1010E000E29E8001E39E100DF29E100D1124212F2F
:1010F0003327C21BD30BCE9F9001CF9F300DDE9FB5
:10110000300D112462307105A9F048F461157105A4
:1011100069F061307105C9F48B2F752F0DC06430F3
:10112000710581F058F06630710579F47E2F8B2FB0
:10113000932F0DC0832F7B2F9E2F09C08E2F7B2FC7
:10114000952F05C08E2F732F02C07E2F852F692FFC
:10115000DF91CF911F910F91FF90EF90089541E0A3
:101160000E941F0808950895CF93DF93762FE90119
:10117000682F842F0E94AF08798368838A83DF9168
:10118000CF91089580910403282F269530E02115F2
:10119000310519F48170826005C02B32310524F0CD
:1011A0008170846580930403089588E090E00C9436
:1011B000192DCF92DF92EF92FF926B017C010E947A
:1011C000C208B701A60188E090E0FF90EF90DF90A1
:1011D000CF900C94372DE4E0F3E083E0808311821C
:1011E0008FEF8283838314826081718182819381F6
:1011F0000C94D9088091040380FF02C0869508955D
:1012000080E0089590910803933018F49F5F9093C5
:101210000803882351F060910403709105038091C5
:101220000603909107030C94D908089581E00C946B
:10123000020990910803992319F0915090930803A3
:10124000882351F060910403709105038091060397
:10125000909107030C94D908089581E00C94190922
:1012600070E00C94C811609108018091040380FF24
:101270000AC08091070123E0829FC0011124875F8B
:101280009C4F0C9430098091090190910A018917B3
:1012900080F7E82FF0E09F01220F331FE20FF31FCA
:1012A000E75FFC4F1182108212828F5FF0CF909126
:1012B000040390FF16C09091090120910A01921732
:1012C00070F4E92FF0E0DF01AA0FBB1FEA0FFB1F4C
:1012D000E75FFC4F8183608342839F5FF0CF0C9474
:1012E00033090895CF93DF9300D01F92CDB7DEB7B7
:1012F0009091040390FF0AC09E012F5F3F4F0E9410
:10130000B4084B8169818A810E9457090F900F9020
:101310000F90DF91CF910895CF93DF93EC01EC8193
:10132000F0E0E156FC4F4491E4E0F3E0628181811A
:101330000E9472098C818F5F8C83DF91CF91089519
:10134000CF93DF93EC01E4E0F3E0438162818C8191
:101350000E9472098C818F5F8C83DF91CF910895F9
:101360000F931F93CF93DF9300D01F92CDB7DEB7BB
:101370008C018091D10181110AC09E012F5F3F4FE6
:101380004FEF6FEF0E94B4088A818093D101F8017A
:101390008481813051F028F0823061F44091D10194
:1013A0000AC08091D10140E007C06091D10140E0C6
:1013B00080E003C040E080E060E00E945709F8014F
:1013C000848190E0019663E070E00E943B2C84836E
:1013D0000F900F900F90DF91CF911F910F91089573
:1013E000AF92BF92CF92DF92EF92FF920F931F9333
:1013F000CF93DF9300D01F92CDB7DEB7182FF62E14
:10140000042FE22E9091040390FF6DC0E92FE69522
:10141000AE2FB0E0AE58BE4F8C9180930D029E7FF0
:10142000923061F49E012F5F3F4F812F0E94B408DC
:101430004B8169818A810E94570943C0823019F427
:10144000009107033EC0863019F41091050339C09E
:101450008930D9F38931A9F5E9518E2F8170D82EC1
:10146000E695F0E0E156FB4FA590B490C12CBB246B
:1014700060910B01C61618F52C2D30E0A29EC0011C
:10148000A39E900DB29E900D112470E00E94272C17
:10149000812FD11002C0860F01C0861B90910901D7
:1014A000290F311DA901440F551F240F351F275F38
:1014B0003C4F402F6F2D0E94B408C394D9CF0E9497
:1014C000330910930503F092060300930703EE20FF
:1014D00051F060910403709105038091060390918F
:1014E00007030E94D9080F900F900F90DF91CF91C2
:1014F0001F910F91FF90EF90DF90CF90BF90AF9032
:101500000895E4E0F3E09181282F4381628188E02F
:10151000890F0C94F00981E00C94810AE4E0F3E077
:101520009181282F4381628188EF890F0C94F00903
:1015300081E00C948E0AE4E0F3E0628128E0620F1F
:1015400008F46FEF282F438181810C94F00981E02A
:101550000C949B0AE4E0F3E0628128E0621B08F44B
:1015600060E0282F438181810C94F00981E00C9484
:10157000AA0AE4E0F3E0438128E0420F08F44FEFC9
:10158000282F628181810C94F00981E00C94B90AC2
:10159000E4E0F3E0438128E0421B08F440E0282F18
:1015A000628181810C94F00981E00C94C80A20E0EA
:1015B0000C94F009FF920F931F93CF93DF93EC01EC
:1015C000F12C0FEF10E060910B01F616F0F4809112
:1015D00009012F2D30E0280F311DC901880F991FF7
:1015E000280F391F275F3C4F70E0C8010E943B2C39
:1015F000962F8C814091070360910603F99E800D20
:1016000011240E94B408F394DECF0E9433099A811A
:101610008C8190FF02C08F5F01C081508C83DF916D
:10162000CF911F910F91FF900895AF92BF92CF92EB
:10163000DF92EF92FF920F931F93CF93DF93FC0102
:10164000828180FF02C00FEF01C001E010E04AE09C
:10165000A42E80910B01181708F043C08091090156
:10166000C12ED12CE601C80FD11DCE01880F991FC4
:10167000C80FD91FC75FDC4F198218821A8234E065
:10168000E32EF12CB12C8091D3018B0D8B302CF0FB
:101690006A2D0E94192C892F05C087FF03C09091E5
:1016A0000B01890F082E000C990BC816D90691F46E
:1016B000809107038E9DA0018F9D500D112455959B
:1016C0004795559547959E016091060380910503C6
:1016D0000E94B408B00EF1E0EF1AF108A1F61F5F06
:1016E000B8CF0E9433098091D301013031F48111C8
:1016F00002C080910B01815007C090E0019660917B
:101700000B0170E00E943B2C8093D301DF91CF91BD
:101710001F910F91FF90EF90DF90CF90BF90AF900F
:101720000895CF938091090190910A01891770F46F
:10173000E82FF0E09F01220F331FE20FF31FE75F56
:10174000FC4F1182108212828F5FF0CFC0E0609157
:101750000B01C617C0F5EC2FF0E070E0CF010E943E
:101760003B2C20910901820F2091D201022E000C06
:10177000330B90E0E217F307CCF020910601022E24
:10178000000C330B2E173F078CF09C01220F331FE8
:10179000820F931F9C01275F3C4F4091070360918C
:1017A0000603809105030E94B4080BC0FC01EE0FF4
:1017B000FF1F8E0F9F1FFC01E75FFC4F11821082FD
:1017C0001282CF5FC4CF0E9433092091050180911E
:1017D000D201820F8093D20190910601920F9093D3
:1017E000060119165CF4082E000C990B40910B01B0
:1017F00050E041505109841795071CF02195209322
:101800000501CF9108958F929F92AF92BF92CF9290
:10181000DF92EF92FF920F931F93CF93DF938C0190
:10182000FC014481C42FD0E09E01DE010E947F2C88
:101830009B01AC010E94952C6B017C01E0E2F0E081
:10184000EC1BFD0BA5E5B0E09B01AC010E94952CC3
:101850004B015C019F01DF010E94772C9B01AC01D1
:101860000E94A02C9B01AC012C0D3D1D4E1D5F1D47
:10187000C501B4010E944F2CC22FD22F2A3228F466
:10188000F3E02F9F900111240DC025E530E02C1BC3
:101890003109C901880F991F280F391F37FF02C06E
:1018A0002F5F3F4F35952795C22FC095F12C85E5C9
:1018B000E82EED1A80910B01F816C8F4F1FC02C075
:1018C0008E2D01C08D2F909109012F2D30E0290F11
:1018D000311DA901440F551F240F351F275F3C4FB1
:1018E0004C2F609106030E94B408F394E3CF0E944A
:1018F0003309F8018481811102C091E003C0803274
:1019000019F49FEF9093040190910401890FF8015D
:101910008483DF91CF911F910F91FF90EF90DF9023
:10192000CF90BF90AF909F908F9008950F931F938B
:10193000CF93DF93EC0100E010E080910B01282FA2
:1019400030E00217130724F5909109019801290F3F
:10195000311DA901440F551F240F351F275F3C4F30
:10196000869590E04C81081719071CF4442331F048
:1019700002C0411103C04091070301C040E06091E3
:101980000603809105030E94B4080F5F1F4FD5CF57
:101990000E9433098C8190E00196817099278C8395
:1019A000DF91CF911F910F9108958F929F92AF92E7
:1019B000BF92CF92DF92EF92FF920F931F93CF933C
:1019C000DF93FC01B280948081E0848300E015E025
:1019D0005BE4A52E88248394EE24EA94F12C7BE426
:1019E000C72ED12C80910B01081708F08FC0C02F93
:1019F000D0E01C9FF0011D9FF00D1124EC52FE4F12
:101A0000911003C01382128267C02381222389F1BF
:101A1000215023833481332319F09A2D921B01C066
:101A2000922F809107031C9FF0011D9FF00D112440
:101A3000EC52FE4F899FC0011124B6010E94272C51
:101A40006283211104C0332311F01482A38222E0A7
:101A50002B1508F441C01C9FF0011D9FF00D1124AF
:101A6000EC52FE4F809105038083809106038183B1
:101A700033C00E94F42C8230914074F582E08B15C3
:101A800030F40E94F42CB7010E943B2C02C08091DC
:101A900005031C9FF0011D9FF00D1124EC52FE4F19
:101AA000808322E02B1558F40E94F42C2091060329
:101AB0002695622F70E00E943B2C820F02C080911D
:101AC00006031C9FF0011D9FF00D1124EC52FE4FE8
:101AD00081831282A3828482809109019E01280F52
:101AE000311DC901880F991F280F391F275F3C4FEF
:101AF0001C9FF0011D9FF00D1124EC52FE4F4281FE
:101B0000618180810E94B4080F5F6CCFDF91CF911B
:101B10001F910F91FF90EF90DF90CF90BF90AF900B
:101B20009F908F900C943309E4E0F3E080818E7FE6
:101B3000808360817181828193810E94D908109293
:101B40000E022FEF80E792E0215080409040E1F7B5
:101B500000C000000C94330960910403669570E0A6
:101B60004BE050E08CE091E00E94042D892B19F4A9
:101B700081E080930E020E94E421909307028093FB
:101B8000060208959091040390FF35C09170811171
:101B900002C0926006C08B3210F0946502C0880FBC
:101BA000982B90930403662351F060910403709185
:101BB000050380910603909107030E94D908609164
:101BC0000403669570E04BE050E08CE091E00E94E9
:101BD000042D892B19F010920E0202C00E94AC0D48
:101BE00081E0809309024091070360910603809190
:101BF00005030C94D70A0895682F909104039695D5
:101C000081E0890F8B3208F081E00C94C20D81E0F5
:101C10000C94FC0D682F9091040396958FEF890F1B
:101C200009F48AE20C94C20D81E00C940A0E61E082
:101C30000C94C20DE4E0F3E080818160808386959E
:101C40000C94170E8091040380FD0C94940D0C9459
:101C50001A0E60E00C94C20D80910C0281112EC00E
:101C60000E94E71F811104C00E9490200E94EB088F
:101C70000E94D508609304037093050380930603C4
:101C8000909307036E7F61F40E94EB080E94D508D1
:101C900060930403709305038093060390930703F6
:101CA0000E94C20810920E028091040380FF03C0BC
:101CB00086950E94290E81E080930C0208950F936F
:101CC0001F93CF93DF9380910E02882309F49CC069
:101CD00080910D02E0910403E695E81BE093080271
:101CE000823049F4F0E0E556FC4FE491CE2FD0E08D
:101CF0000CE819E059C0863049F4F0E0E856FC4F92
:101D0000E491CE2FD0E000EA19E04EC0893051F4C2
:101D1000E695F0E0EB56FC4FE491CE2FD0E00AEDD3
:101D20001AE042C08F3051F4E695F0E0EE56FC4FD9
:101D3000E491CE2FD0E005E11BE036C0853149F4B7
:101D4000F0E0E157FC4FE491CE2FD0E001E91BE039
:101D50002BC08831D9F0833239F4EDE8F3E0C59136
:101D6000D49100EB19E020C08432A9F08532C1F48F
:101D70008E2F63E00E940D2CE92FF0E0E657FC4F18
:101D8000E491CE2FD0E005ED1CE00EC0C8E2D0E01B
:101D900003E01CE009C0C4EFD1E006E91CE004C088
:101DA000C0EDD7E003EB18E080910902882389F0A9
:101DB000109209020E94E4219E0120953095820F25
:101DC000931F909307028093060210920B021092C9
:101DD0000A0280910602909107020E94F0218C175E
:101DE0009D0790F0E0910602F0910702CE0FDF1FF1
:101DF000D0930702C093060286E092E0F801DF91DB
:101E0000CF911F910F910994DF91CF911F910F9165
:101E10000895882311F0FA0101C0FB010994CF93C2
:101E2000DF93C82FD62F0E94FA088C1740F00E942B
:101E3000FA088D1720F4DF91CF910C94070E8C2FA8
:101E4000DF91CF910C94170E0F931F93CF93FB014B
:101E5000C281CC2309F463C08C010E94301F8272BE
:101E6000F801E25CFC45E431F10508F059C0EA5A9A
:101E7000FF4F0C94712C0E94220E06C044E15EE0DC
:101E800067E07EE00E94090FC0E04AC047E05EE0E4
:101E900064E17EE0F7CF48E95AE06BE87AE0F2CF00
:101EA0004BE85AE068E97AE0EDCF46EB5AE067EAA2
:101EB0007AE0E8CF47EA5AE066EB7AE0E3CF44ED18
:101EC0005AE065EC7AE0DECF45EC5AE064ED7AE06A
:101ED000D9CF4DE259E066E179E0D4CF46E159E04F
:101EE0006DE279E0CFCF81E017C065E082E010C0FD
:101EF00068E086E00DC06EE089E00AC064E18FE032
:101F000007C067E185E104C088E106C062E289E1BB
:101F10000E940F0FB9CF83E20E94170EB5CFC1E028
:101F20008C2FCF911F910F91089580912703869553
:101F30008695869508958091270381FD07C082606C
:101F4000809327030E941C200C942E1108958091E9
:101F5000270381FF07C08D7F809327030E941C20E9
:101F60000C943A1108958091270381FD0C94A70FDA
:101F70000C949B0F80912703869581700895809122
:101F8000170108950E94E71F811102C00E9490204E
:101F90000E94182080932703282F269526952695A2
:101FA00030E02430310524F0877088618093270366
:101FB0008091270380FF04C086958695869501C091
:101FC00080E00C94041120912703822F869586953A
:101FD0008695482F50E04330510554F48F5F982F79
:101FE000990F990F990F822F8770892B8093270360
:101FF000809127038160809327030E941C20809199
:1020000027038695869586950C9404118091270365
:10201000982F969596959695A1F0915E990F990FA8
:10202000990F8770892B80932703887F91E009F4AB
:1020300090E08091270390FB80F9809327030E9412
:102040001C20809127038695869586950C94041113
:102050008091270380FD13C0816080932703813026
:1020600019F489E080932703809127030E941C20A4
:10207000809127038695869586950C940411089582
:102080008091270380FF08C08E7F809327030E94E2
:102090001C2080E00C94041108958091270380FD9A
:1020A0000C9440100C94281090912703892F86954A
:1020B000869586958F5F8F719770843038F4880F7E
:1020C000880F880F892B8093270302C090932703E2
:1020D00080912703887F91E009F490E080912703A5
:1020E00090FB80F9809327030E941C208091270396
:1020F0008695869586950C940411843008F083E0CB
:10210000909127039770282F220F220F220F922BD6
:1021100090932703987F21E009F420E09091270312
:1021200020FB90F9909327030C9404110E947D10DA
:10213000809127030C941C20FC01DB0112968C91EA
:102140008823F9F0EB5BFC45E730F105D8F4E6595C
:10215000FF4F0C94712C83E001C080E00E94961028
:1021600080E008950E940610FBCF0E94E30FF8CF95
:102170000E944D10F5CF0E945410F2CF0E94B30F71
:10218000EFCF81E00895279A2F9808952F9808950A
:10219000CF92DF92EF92FF928C3724E1920728F4DE
:1021A00069E070E00E94272C29C0A0E0B0E08A50CE
:1021B000974DAF4FBF4F6627782F892F9A2F25EF66
:1021C00038E241E050E00E944F2C69017A01CA01D7
:1021D000B9010E94FD2B9B01AC01C701B6010E9411
:1021E000FD2BBB27A92F982F872F009721E0A2074F
:1021F000B10511F0BC0102C06FEF7FEFCB01FF9082
:10220000EF90DF90CF900895CF93C82F843050F493
:10221000811109C080918000877F809380000E9497
:10222000C61006C0C3E08091800088608093800063
:102230002C2F30E0AFEFBFEF0E947F2C23E030E087
:1022400040E050E00E944F2CC9010E94C8109093BA
:102250008D0080938C00CF91089508951092100204
:1022600010920F0210921102EFE6F0E0808181607F
:1022700080830895EFE6F0E080818E7F80830E9466
:10228000950F0C9404111F920F920FB60F92112408
:102290002F933F934F935F936F937F938F939F936E
:1022A000AF93BF93CF93EF93FF930E94BF0F4091E3
:1022B0000F02509110024F5F5F4F94EF899F900182
:1022C0001124CA01B9010E94272C90931002809317
:1022D0000F02B901660F672F661F770B71950E9479
:1022E000272C6F7780911102823019F4603451F4F9
:1022F00004C0813039F46F3729F480916F008E7FEC
:1023000080936F00E62FF0E0EC55FB4FC4910E94E4
:10231000950F282F41E051E0C49FC001C59F900D4B
:10232000112463E070E00E94272C269FC001279FA4
:10233000900D11240E94C81090938D0080938C0002
:10234000FF91EF91CF91BF91AF919F918F917F912D
:102350006F915F914F913F912F910F900FBE0F9012
:102360001F9018950E94C3108AE08093800089E135
:10237000809381008FEF9FEF90938700809386007A
:102380000E94C20F0E94BA0F81110C942E11089561
:10239000869A21B32F7B31B330644FB7F894FC0198
:1023A000CB01880F991F680F791F6E0F7F1FE617EB
:1023B000F70789F0819198E031BB000000C087FFEA
:1023C00021BB880F000000C000C000C021BB00C0BE
:1023D0009A9591F7ECCF4FBF8FE594E00197F1F715
:1023E00000C000000895AF92BF92CF92DF92EF92AB
:1023F000FF920F931F93CF93DF937C015B01C42F58
:10240000D22FFC0182818823F9F0409314020E94AC
:10241000E421909313028093120280E28C0F8830A3
:1024200008F06EC0C77081E001C0880FCA95EAF756
:10243000DF91CF911F910F91FF90EF90DF90CF90A0
:10244000BF90AF900C94D11680911402481335C000
:1024500080911202909113020E94F0216C01B70149
:10246000C5010E941A1CC816D90638F510E21D0FC6
:10247000CD17B9F080E28C0F883040F4C77081E04E
:1024800001C0880FCA95EAF70E94D816183058F58F
:1024900081E09D2F977001C0880F9A95EAF70E94FE
:1024A000D116802F0E94BE16183050F5D77081E0EB
:1024B00001C0880FDA95EAF70AC080E28C0F8830F5
:1024C000F8F4C77081E001C0880FCA95EAF7DF9180
:1024D000CF911F910F91FF90EF90DF90CF90BF9021
:1024E000AF900C94D816802FDF91CF911F910F9150
:1024F000FF90EF90DF90CF90BF90AF900C94BE16FE
:10250000DF91CF911F910F91FF90EF90DF90CF90CF
:10251000BF90AF9008950F939C01CB01233F4CE5F2
:10252000340731F188F4283DFCE53F07D9F0293D17
:102530004CE5340779F1273D3C45A9F506E221EE4B
:1025400041EE67ED7CE52BC0253FFCE53F07E1F060
:10255000A8F0263F3C4539F507E225EE46EE66EF4A
:102560007CE51DC007E225EE45EE68ED7CE517C071
:1025700006E221EE40EE63EF7CE511C007E225EEB6
:1025800044EE64EF7CE50BC006E221EE42EE65EF1F
:102590007CE505C008E221E045EE69ED7CE50E949E
:1025A000F31180E008C0FC018281882319F01092A9
:1025B000140201C081E00F910895CF93DF93EC01E5
:1025C000FB018281882309F41FC1C230FCE5DF07CB
:1025D00008F41BC1C6319CE5D90738F09E012A5F7B
:1025E0003C452930310508F010C10E94FA1F909334
:1025F0002D0380932C03C031ECE5DE0709F4C3C042
:1026000008F041C0C8308CE5D80709F49AC0F0F44E
:10261000C430ECE5DE0709F487C068F4C2308CE50D
:10262000D80709F477C0C330DC4509F0E3C08091D6
:102630002C03826076C0C630ECE5DE0709F46EC07C
:1026400008F07BC080912C0388606BC0CC308CE597
:10265000D80709F485C068F4CA30ECE5DE0709F450
:1026600074C008F079C00E94611980912C038068C1
:1026700058C0CE308CE5D80709F476C008F07FC08A
:1026800080912C038BC0CB3FECE5DE0709F44FC0F3
:1026900018F5C3318CE5D80709F47DC078F4C13151
:1026A000ECE5DE0709F473C0C231DC4509F0A2C0D5
:1026B0000E94611980912C038F7733C0C5318CE55E
:1026C000D80709F472C008F486C0CA3FDC4509F097
:1026D00091C080912D033EC0CF3FFCE5DF0709F498
:1026E0005FC058F4CD3F9CE5D90709F444C008F415
:1026F0003FC080912D0382602DC0C130FDE5DF0712
:1027000009F475C008F45DC0C230DD4509F072C03F
:1027100080E06EC080912C03816003C080912C0307
:10272000806180932C0366C080912C0311C080913E
:102730002D03826080932D035DC080912C03806205
:10274000F0CF80912C038064ECCF80912C038860C3
:102750008460E7CF8160EECF80912C038E7FE1CF44
:1027600080912C038D7FDDCF80912C03877FD9CF83
:1027700080912D0318C080912D038D7FDBCF809138
:102780002C038F7ECECF80912C038F7DCACF80917A
:102790002C038F7BC6CF80912C03877F8B7FC1CF8B
:1027A00080912D038D7F8E7FC5CF80912C0382FB7E
:1027B000222720F991E0922790FB82F990FB83F980
:1027C000B0CF80912D03982F909591708E7F892B9B
:1027D00090FB81F9AFCF0E94611980912C0387FB98
:1027E000222720F991E0922790FB87F99ACF81E088
:1027F0000E94922080912C0390912D030E940B2027
:102800000E94611980E001C081E0DF91CF910895BD
:10281000CF93DF9386319C4541F5EB010E94301F39
:10282000982F8A812091180130911901882379F01D
:102830009A7A81E009F480E080931502911102C038
:1028400069E201C065E3C9010E942D210AC080919F
:102850001502811102C069E201C065E3C9010E944D
:1028600038210E947E1F80E001C081E0DF91CF917E
:10287000089590931B0280931A020895E0911A0222
:10288000F0911B02309721F00190F081E02D099426
:1028900080E00895E0911A02F0911B02309799F0C0
:1028A00020912C01222359F020912C0327FF07C0EF
:1028B000DC012C9111962C93119725E02C9302802A
:1028C000F381E02D09940895E0911A02F0911B0222
:1028D000309739F022E0DC012C930480F581E02D63
:1028E0000994089520911802309119022817390788
:1028F00071F09093190280931802E0911A02F091FE
:102900001B02309721F00680F781E02D099408958D
:1029100020911602309117022817390771F0909311
:10292000170280931602E0911A02F0911B02309771
:1029300021F00084F185E02D0994089585B7806821
:1029400085BF85B7806885BF089508950C94A51448
:102950000C94A6140C94A5140C94A5140E949E1417
:102960000E94AA140C94A81481E008950C94B41445
:102970000E94DB210E9405070E945F220E94C20F75
:102980000E942C0E0C94AC147F928F929F92AF9267
:10299000BF92CF92DF92EF92FF920F931F93CF934C
:1029A000DF93CDB7DEB72A970FB6F894DEBF0FBE20
:1029B000CDBF0E9457070E94B614811111C08FEF3E
:1029C00089838A831B820E94E4218160782F9D8302
:1029D0008C8349815A816B818D810E9478154FC00B
:1029E0004DE1A42E42E0B42E00E010E0702E802FC6
:1029F0000E94EE066C01F501819091905F0188269E
:102A000099268114910431F40F5F1F4F0530110591
:102A100069F7D5CF8091BF0281FD0E94F70680E063
:102A2000EE24E394F12C94012E213F21232B09F174
:102A30008E837F82CE20DF2081E0CD2809F480E0E4
:102A400088870E94E4218160782F9A8789874E8148
:102A50005F8168858A850E947815000F111FF80133
:102A6000E35EFD4F80819181E826F926F182E082C4
:102A700006C08F5FEE0CFF1C8F30A9F6C5CF0E94F9
:102A80005F0E0E942D110E940E240E943E14909110
:102A90001C028917C9F00E943E1480931C022A96DA
:102AA0000FB6F894DEBF0FBECDBFDF91CF911F915F
:102AB0000F91FF90EF90DF90CF90BF90AF909F90DD
:102AC0008F907F900C947E042A960FB6F894DEBF08
:102AD0000FBECDBFDF91CF911F910F91FF90EF906F
:102AE000DF90CF90BF90AF909F908F907F90089590
:102AF000CF93DF93CDB7DEB72B970FB6F894DEBF39
:102B00000FBECDBF4F83588769877A878B87DE01D9
:102B1000119686E0FD0111928A95E9F785E0FE01A4
:102B2000379601900D928A95E1F749815A816B8120
:102B30007C818D819E810E941D1C2B960FB6F8947E
:102B4000DEBF0FBECDBFDF91CF910895FC01808124
:102B500091810E94F11E0895CF93882309F4A4C0A7
:102B6000C82F8238C1F40E943E1481FD9DC069E3E4
:102B700080911801909119010E942D210E947E1FC1
:102B80002FEF81EE94E0215080409040E1F700C0AB
:102B9000000069E319C0833801F50E943E1480FDEE
:102BA00083C063E580911801909119010E942D2145
:102BB0000E947E1F2FEF81EE94E0215080409040D4
:102BC000E1F700C0000063E58091180190911901C0
:102BD0000E943821CF910C947E1F8438C1F40E944A
:102BE0003E1482FD61C067E4809118019091190143
:102BF0000E942D210E947E1F2FEF81EE94E0215034
:102C000080409040E1F700C0000067E4DDCF8CEF2A
:102C10008C0F813AD0F46C2F80911801909119019A
:102C20000E94AD20882349F06C2F8091180190916B
:102C300019010E9438210E947E1F6C2F809118017B
:102C4000909119010E942D21C5CF80E28C0F883010
:102C500048F4C77081E001C0880FCA95EAF70E9466
:102C6000331FB8CFEBE5EC0FE33040F4F0E0E55371
:102C7000FE4F808190E0CF910C947214E8E5EC0F48
:102C8000E73150F4F0E0EE0FFF1FE356FE4F808176
:102C90009181CF910C948814C03F30F08C2F0E940A
:102CA0000323CF910C94F023CF910895882309F446
:102CB00064C0823879F40E943E1481FF5EC069E3EB
:102CC00080911801909119010E942D210E947E1F70
:102CD00069E310C08338B1F40E943E1480FF4DC0F8
:102CE00063E580911801909119010E942D210E94A5
:102CF0007E1F63E580911801909119010E9438218F
:102D00000C947E1F843879F40E943E1482FF35C0F3
:102D100067E480911801909119010E942D210E9471
:102D20007E1F67E4E7CF9CEF980F913A10F4682F6D
:102D3000E1CF90E2980F983050F4877091E001C095
:102D4000990F8A95EAF7892F0E94391FD9CF9BE501
:102D5000980F933020F480E090E00C94721498E582
:102D6000980F973120F480E090E00C948814803F15
:102D700020F00E946B230C94F0230895CF93C82F6A
:102D80000E94AC15C93349F42FEF87EE93E0215030
:102D900080409040E1F700C000008C2FCF910C9450
:102DA0005616882321F00E94331F0C947E1F08952D
:102DB000882321F00E94391F0C947E1F0895CF9222
:102DC000DF92EF92FF920F931F93CF93DF937C01DB
:102DD000062FC72FFC01158112951F70D281D111CA
:102DE0000E94501F0E94291F882399F0DD2389F03B
:102DF0008C2F807F803421F080E2800F883048F073
:102E000082E00E94C81F0E94291F91E0D82ED92677
:102E100001C0D12CCC2EC2948FE0C8228C2D90E022
:102E2000FC01EF58FF4F0C94712C8C2F807FCF70DA
:102E3000882311F0C295C07FDD2399F0CC2309F4DB
:102E40008DC180E2800F883010F0011104C08C2FFA
:102E50000E94331F03C08C2F0E94431F0E947E1FBD
:102E60007DC1802F0E945616CC2309F49CC180E2BC
:102E7000800F883010F0011104C08C2F0E94391F80
:102E800003C08C2F0E94491F0E947E1F8CC18C2F73
:102E9000807FCF70803211F0C295C07F002319F07F
:102EA0000130C9F022C0DD2371F0112341F011304F
:102EB00031F40E94631F8C2B0E946B1F74C10E940F
:102EC000631F8C2B1DC0112319F0113009F46BC145
:102ED0000E94741F25C0DD2321F0163008F063C165
:102EE0000EC0153008F05FC11BC0DD2361F0112357
:102EF00031F0F701858180FF31C18F7085838C2F80
:102F00000E94D11650C1112359F0093309F037C17D
:102F1000FFEF27EE83E0F15020408040E1F72DC124
:102F20008C2F0E94D8163FC18C2F86958695837072
:102F300019F0813061F037C1DD2321F0802F9C2F03
:102F4000937002C080E090E00E94721434C1DD23CF
:102F500021F0802F9C2F937002C080E090E00E94AF
:102F6000881429C1802FDD2319F00E94032302C099
:102F70000E946B230E94F0231EC18C2F837009F0E6
:102F800045C0D11114C1402F429546954770440F5A
:102F9000440F602F6F70862F90E0A0E0B0E0042E09
:102FA00004C0880F991FAA1FBB1F0A94D2F704FF01
:102FB00010C00FE010E020E030E004C0000F111F4F
:102FC000221F331F4A95D2F7009510952095309512
:102FD00003C000E010E09801C695C695C370BC011F
:102FE000CD01602B712B822B932BC23049F058F40A
:102FF000C13019F00E946E1DDAC00E945C1DD7C05E
:103000000E94801DD4C00E945A1DD1C0DD2319F03A
:103010008C2F817001C08695882309F4C8C0402F89
:10302000429546954770440F440F602F6F70862F6E
:1030300090E0A0E0B0E0042E04C0880F991FAA1F02
:10304000BB1F0A94D2F704FF10C00FE010E020E08D
:1030500030E004C0000F111F221F331F4A95D2F722
:10306000009510952095309503C000E010E0980180
:10307000C695C695C370BC01CD01602B712B822B08
:10308000932BC23049F058F4C13019F00E94331E1E
:103090008EC00E94211E8BC00E94451E88C00E94C7
:1030A000941D85C0CF70DD2339F08C2F0E94BA1D8E
:1030B000802F0E94D1167BC0802F0E94D8168C2FA3
:1030C0000E94DB1D74C0023F01F128F4003F41F073
:1030D000013FA1F03FC0033FF9F0043F39F13AC08E
:1030E000DD2341F0153008F05EC08C2F8F710E94F7
:1030F000001E59C0163008F056C0F7CFDD2339F056
:103100008C2F8F710E94BA1D4EC0DD23C9F38C2F06
:103110008F710E94DB1D47C0DD2329F08C2F8F713A
:103120000E94A51D40C00E94A01D3DC0DD2349F0A6
:10313000CF718C2F0E94BA1D63E08C2F0E94B31FA9
:1031400032C081E00E94C81F123068F182E00E9404
:10315000C81F29C0DD2331F0112391F2802F0E9476
:10316000AC1521C0112399F2093349F49FEFE7EE22
:10317000F3E09150E040F040E1F700C00000802F04
:103180000E94561610C04C2F4F70602FC7010E942E
:10319000E0040E94CB1C0FC04C2F4F70602FC70162
:1031A0000E94E30408C088EF8C0D843020F40E9454
:1031B0003E140E947E04DD20C9F00E94251F80FD80
:1031C00015C0F70112820E941F1F0E94BA1DC7017D
:1031D0000E9417190E941F1FDF91CF911F910F911D
:1031E000FF90EF90DF90CF900C94DB1DDF91CF919B
:1031F0001F910F91FF90EF90DF90CF9008950F9364
:103200001F93CF93DF93EC01688179818A810E94BB
:10321000FC1E8C010E94571E0E94481DB801CE0161
:103220000E94DF16DF91CF911F910F910895CF93E8
:10323000DF93EC01988189812B813C81232B31F034
:103240008F3F31F481E09F3F19F403C081E001C05A
:1032500080E080FD19C0CE010E94970481110CC04E
:103260000E94291F882381F08A81882369F082E0E7
:10327000DF91CF910C94C81FCE010E94FF18CE01A0
:10328000DF91CF910C945E04DF91CF9108950E945D
:10329000501F0E94601F0E947E1F0E9421250E94D5
:1032A000F02380E090E00E94721480E090E00C94A3
:1032B000881480911801909119010E9443210C9467
:1032C00047190E94401F0C945919E92FE295EF709D
:1032D0004E2F50E0FA013297EE30F105B0F4EF577F
:1032E000FF4F0C94712C803F91F018F4883E68F4E5
:1032F0000EC0843F51F40BC0883E48F0813F29F452
:1033000006C093FB882780F9089580E0089581E046
:1033100008950E94F11E0E9465190895CF93DF93CE
:1033200000D000D01F92CDB7DEB70F900F900F9056
:103330000F900F90DF91CF910895CF93DF9300D03E
:1033400000D000D0CDB7DEB726960FB6F894DEBF1A
:103350000FBECDBFDF91CF9108951F93CF93DF9321
:10336000C091280216E080912902C81799F0D0E098
:103370001C9FF0011D9FF00D1124E65DFD4F408163
:10338000518162817381848195810E949D1921966A
:10339000C770E9CFDF91CF911F91089540915A02F4
:1033A00050915B0260915C0270915D0280915E02BF
:1033B00090915F020C949D190F931F93CF93DF930D
:1033C00080915F0282958F7009F05DC080915C02F0
:1033D000882309F458C08091280210912902609135
:1033E0005A0270915B02C0915D02D0915E0291E041
:1033F0006F3F09F090E0292F06E0811709F443C0E0
:10340000209721F07F3F21F030E003C031E001C080
:10341000322F90E030FD34C0089FF001099FF00D7D
:103420001124DF01A65DBD4F11963C911197371312
:1034300027C03C91361324C012963C91129731114B
:103440001FC013964D915C9114974C1B5D0B483C2B
:103450005105B0F480915F028F70806180935F02AC
:10346000E15DFD4F80818F70806180838AE592E00D
:103470000E941719DF91CF911F910F910C94AD19F4
:1034800001968770BACFDF91CF911F910F91089568
:103490009F92AF92BF92CF92DF92EF92FF920F93E3
:1034A0001F93CF93DF93CDB7DEB761970FB6F89434
:1034B000DEBF0FBECDBF8C0185E0F801DE011D9699
:1034C00001900D928A95E1F7F80140815181E280E7
:1034D00090915A0260915B0220915D0230915E02F0
:1034E0002115310531F06F3F31F481E09F3F19F430
:1034F00003C081E001C080E0F82FF1709F2E80FDB5
:1035000046C1F801A380B4808AE5C82E82E0D82E97
:10351000F0905C02F501E21BF30BFF2009F4DFC021
:1035200080915F02E83CF10508F09BC0282F207FC6
:1035300009F052C0561313C0491311C0FE2CE110FC
:103540000EC08F70806180935F020E94CE19C60109
:103550000E94171980915F02F801858358C1AB283A
:1035600031F05F3F31F481E04F3F19F403C081E057
:1035700001C080E080FD03C081E08E2502C080E0B4
:1035800090E0F82FF170FF2E80FF1CC08091280280
:103590002091290236E0821709F417C190E0389F84
:1035A000F001399FF00D1124E65DFD4F6181561346
:1035B00006C06081461303C06281E61203C0019613
:1035C0008770E9CFFE2CEE2009F421C180915F02C3
:1035D000816080935F025AC0561306C0491304C02D
:1035E000E11002C0F8019FC04D875E878D859E85E2
:1035F0000E948919882379F1EE2069F120915F02F8
:10360000822F82958F7090E0029774F080915A0219
:1036100090915B0298878F831986BB86AA862C8738
:10362000CE0107960E94171986E0F801AAE5B2E0DC
:1036300001900D928A95E1F70E94DC190E94CE1943
:103640000DC0561729F14D875E878D859E850E9496
:10365000891981112CC0C8010E941719FF24F39405
:10366000D6C0282F207F69F77A2DB98AA88A6E2DB7
:1036700089890E948E198AE592E00E94171986E0D6
:10368000F60111928A95E9F70E94CE19F12CBFC07C
:103690004913D9CFE110D7CFF8018583C8010E9423
:1036A000171986E0F60111928A95E9F7B0C0EE206D
:1036B00091F220915F02822F82958F7090E00297A5
:1036C0000CF4B2CF80915A0290915B029A83898365
:1036D0001B82BD82AC822E83CE010196A3CFE83C33
:1036E000F10508F047C0FE2CEE2009F4B4CF5613C4
:1036F00030C049132EC020915F0220FD21C0822FCF
:1037000082958F70482F50E041155105C9F0F8019E
:1037100025834F30510541F08F5F982F9295907F10
:10372000822F8F70892B8583C8010E94171986E02C
:10373000F801AAE5B2E001900D928A95E1F742C046
:1037400086E0F801AAE5B2E001900D928A95E1F7D2
:103750005EC04D875E878D859E850E948919811187
:1037600063CF80915F02816080935F02C8010E94F5
:1037700017194DC07A2DB98AA88A6E2D89890E94A1
:103780008E1986E0F60111928A95E9F71BC0EE20AA
:1037900009F461CF4D875E878D859E850E948919CA
:1037A000F82E882309F457CF86E0F801AAE5B2E0A5
:1037B00001900D928A95E1F78AE592E00E94A615A4
:1037C0000E94DC190E94CE1922C04D875E878D852C
:1037D0009E850E94F11E292F22952F70223028F4F9
:1037E0009F7039F0811105C00BC0243028F49F7000
:1037F00049F4805E883020F0C8010E9417199F2C80
:10380000F92C05C0F8019581907F99F7F9CF8F2D9C
:1038100061960FB6F894DEBF0FBECDBFDF91CF919A
:103820001F910F91FF90EF90DF90CF90BF90AF90DE
:103830009F90089588EC90E008951F93CF93DF93B5
:10384000CDB7DEB72C970FB6F894DEBF0FBECDBF55
:103850004F83588769877A878B879C87CE01079625
:103860000E94481A8823D1F09F8188852A853B854C
:10387000232B31F08F3F31F481E09F3F19F403C0D7
:1038800081E001C080E080FD47C04F815885698597
:103890007A858B859C850E949D193EC086E0FE013D
:1038A0003796DE01119601900D928A95E1F7FF811E
:1038B000E8856A857B856115710531F0EF3F31F44C
:1038C00081E0FF3F19F403C081E001C080E080FD8A
:1038D00023C02091290230E0C90101968770992701
:1038E0004091280250E084179507F1F1F983EA83AB
:1038F0007D836C8396E0929FD001939FB00D11243D
:10390000A65DBD4FFE01319601900D929A95E1F7AB
:10391000809329020E94AD1916E0809128029091AF
:103920002902891771F1189FC0011124865D9D4FEE
:103930000E94481A882329F1E09128021E9FF00175
:103940001124E65DFD4F4081518162817381848144
:1039500095810E949D198091280290E001968770C0
:10396000992780932802D9CF0E94611910922902C9
:1039700010922802EAE5F2E086E0DF011D928A95C6
:10398000E9F72C960FB6F894DEBF0FBECDBFDF91DE
:10399000CF911F910895EF92FF920F931F93CF93B2
:1039A000DF938C01892B09F46CC0F12CEE24E39495
:1039B000E8012196F8018491843740F4843008F0BE
:1039C00051C0813081F0823019F15BC0853709F434
:1039D00044C0A8F19CE7980F903708F052C08F7749
:1039E0000E94561641C00E5F1F4FFE01849190E267
:1039F000980F983050F48770FE2D01C0FF0F8A9504
:103A0000EAF78F2F0E94531F14C00E94AC152DC0DF
:103A10000E5F1F4FFE01849190E2980F983060F482
:103A20008770FE2D01C0FF0F8A95EAF78F2F0E9445
:103A3000591F0E947E1F19C00E94561616C00E5FA5
:103A40001F4FFE01C491CC2381F08FE99FE00197C5
:103A5000F1F700C00000C150F6CF0E5F1F4FFE010E
:103A6000F49003C00E94AC158E018F2D882309F4B9
:103A70009FCFEFE9FFE03197F1F700C000008150E0
:103A8000F5CFDF91CF911F910F91FF90EF900895A7
:103A9000089508950C94491D0C944A1D0E944C1DD4
:103AA0006093960270939702809398029093990284
:103AB0000C9447190C944E1D0F931F93009196027E
:103AC000109197022091980230919902602B712BEE
:103AD000822B932B1F910F910C944E1D0F931F93CC
:103AE00000919602109197022091980230919902CC
:103AF00060237123822393231F910F910C944E1DF9
:103B00000F931F93009196021091970220919802B3
:103B10003091990260277127822793271F910F9177
:103B20000C944E1D0C94491D0E94921D60939202AC
:103B30007093930280939402909395020C9447198A
:103B400060E070E0CB010C94941D0F931F9341E053
:103B500050E060E070E08A019B0104C0000F111F7B
:103B6000221F331F8A95D2F7C901B8011F910F9107
:103B70000C94941D0F931F9341E050E060E070E0BF
:103B800004C0440F551F661F771F8A95D2F7809196
:103B9000920290919302A0919402B09195028A01B1
:103BA0009B01082B192B2A2B3B2BC901B8011F9114
:103BB0000F910C94941D0F931F9341E050E060E02F
:103BC00070E004C0440F551F661F771F8A95D2F717
:103BD00040955095609570958091920290919302D6
:103BE000A0919402B09195028A019B0108231923A8
:103BF0002A233B23C901B8011F910F910C94941DF6
:103C00000F931F9341E050E060E070E004C0440F68
:103C1000551F661F771F8A95D2F780919202909167
:103C20009302A0919402B09195028A019B0108270A
:103C300019272A273B27C901B8011F910F910C941E
:103C4000941D0F931F930091920210919302209163
:103C5000940230919502602B712B822B932B1F9134
:103C60000F910C94941D0F931F9300919202109149
:103C70009302209194023091950260237123822354
:103C800093231F910F910C94941D0F931F930091F8
:103C90009202109193022091940230919502602734
:103CA0007127822793271F910F910C94941D0895DB
:103CB0002FE0929F800D1124E82FE695E695E6957A
:103CC000877051E001C0550F8A95EAF785E0E89FBB
:103CD000F0011124E05AFD4F20E030E070E0408117
:103CE000CB01022E02C0969587950A94E2F7817067
:103CF000819584278523842781932F5F3F4F25302B
:103D0000310569F708952FE0929F800D1124682FE7
:103D1000669566956695982F977085E0689FB001C7
:103D2000112440E050E080E0FB01E40FF51FE05A71
:103D3000FD4F208130E0092E02C0369527950A9468
:103D4000E2F721703327042E01C0220F0A94EAF70C
:103D5000822B4F5F5F4F4530510531F70895BF9279
:103D6000CF92DF92EF92FF920F931F93CF93DF9347
:103D70008C01C0909202D0909302E0909402F09057
:103D800095028091960290919702A0919802B0912D
:103D90009902C82AD92AEA2AFB2ACFE1D0E0D70122
:103DA000C6010C2E04C0B695A795979587950A94E1
:103DB000D2F780FD04C0219790F7B12C07C0BC2E2C
:103DC000B8018C2F0E94FF040197A9F38B2DDF917E
:103DD000CF911F910F91FF90EF90DF90CF90BF9008
:103DE0000895CF93DF93EC010E94AF1EBE010E94A5
:103DF000FF04DF91CF9108951F93CF93DF93EB01E1
:103E000090912702992321F0CB010E94F11E13C04B
:103E1000882349F0CB010E94AF1E182F682FCE01D6
:103E20000E94581E04C0CB010E94831E182FBE01A1
:103E3000812F0E94FF04DF91CF911F9108958091FF
:103E40009A02859585958595089580919A02877047
:103E5000089590919A02977081E009F480E00895A6
:103E60008091BE0208959091BE02892B8093BE027C
:103E7000089580959091BE0289238093BE02089593
:103E80001092BE0208959091BD02892B8093BD02CD
:103E9000089580959091BD0289238093BD02089575
:103EA0001092BD0208959091BC02892B8093BC02B0
:103EB000089580959091BC0289238093BC02089557
:103EC0001092BC02089580919B02089508950C946D
:103ED000661F0C94671F90919B02981721F08093A6
:103EE0009B020C94691F089580919B02882329F0FE
:103EF00010929B0280E00C94691F0895E0911801D4
:103F0000F09119018091BE028083E0911801F09137
:103F1000190190818091BD02892B8083E091180165
:103F2000F091190190818091BC02892B808380914E
:103F30009B02882381F0E0911801F0911901908192
:103F4000892B808380911801909119010E949720FC
:103F500081110E94741F80911801909119010C9495
:103F60004A140C94661F98E0899F90011124262B17
:103F700020939A020E94BA1D80919A028595859598
:103F800085950C94B11F10929A0280E00C94B11F99
:103F900020919A028095822380939A02982F97709D
:103FA00079F430E0482F082E000C550B2417350704
:103FB00039F08595859585950E94DB1D0C94C31F6E
:103FC00008956FEF7FEF80E090E00C94432D80E048
:103FD00090E00E941F2D21E08C3E9E4F09F020E0D2
:103FE000822F089582E090E00C94112D83E090E000
:103FF0000C94112DCF9384E090E00E94112DC82FD6
:1040000081E290E00E94112D2C2F30E0A901582B65
:10401000CA01CF910895CF93C92F682F84E090E013
:104020000E94252D6C2F81E290E0CF910C94252DDC
:1040300086E090E00C94112D682F86E090E00C94BF
:10404000252DAB01BC018FE090E00C94372DAB0126
:10405000BC0183E190E00C94372D60E070E0CB016F
:104060000C94272060E070E0CB010E9421200C948A
:104070002D206CEE7EEF80E090E00E94432D60E00A
:1040800082E090E00E94252D60E083E090E00E94B5
:10409000252D10929602109297021092980210927B
:1040A000990260E084E090E00E94252D60E081E2CA
:1040B00090E00E94252D60E085E090E00E94252D93
:1040C00060E086E090E00E94252D6FEF87E090E0B1
:1040D0000E94252D40E050E0BA0188E090E00E9467
:1040E000372D60E08DE090E00E94252D40E050E00B
:1040F000BA0188E190E00E94372D60E087E190E00E
:104100000E94252D40E050E0BA018CE190E00E9431
:10411000372D60E080E290E00E94252D0C94322043
:104120000C943920682F8EE090E00C94252DFC0132
:10413000329680912C01882331F080912C0387FFE7
:1041400002C09EE101C096E080E0915028F02191EC
:104150002223D9F38F5FF9CF0895662351F120917F
:104160002C012223E9F020912C0327FF19C0462FB0
:104170004695469546954E31E0F4677021E030E073
:1041800002C0220F331F6A95E2F7FC01E40FF11D14
:10419000828190E02823392381E0232B69F409C030
:1041A000FC01329608962191621729F0E817F90769
:1041B000D1F780E0089581E008959C01FC013296DA
:1041C0009FEF80E04191461789F09F3F19F441111C
:1041D00001C0982F8F5F8630A9F79F3F39F0F90112
:1041E000E90FF11D97FDFA956283089508959C01EA
:1041F0002A5F3F4FFC014281461301C012820196A3
:1042000082179307B9F70895262F269526952695A8
:104210002E3168F4FC01E20FF11D677021E030E0FF
:1042200001C0220F6A95EAF78281282B2283089524
:10423000262F2695269526952E3170F4FC01E20F47
:10424000F11D677021E030E001C0220F6A95EAF7A6
:104250002095828128232283089520912C012223F6
:1042600029F020912C0327FD0C9404210C94DD20CF
:1042700020912C01222329F020912C0327FD0C945E
:1042800018210C94F72020912C01FC013296222356
:1042900031F080912C0387FF02C08EE101C086E0DF
:1042A000DF011D928A95E9F7089508950C94552130
:1042B0000C945521CF930E9458210E9457070E94C9
:1042C0005621C0E08C2F0E94EE06892B29F4CF5F87
:1042D000C530C1F780E001C081E0CF9108950C9412
:1042E00055210C946F210E947121809132038430FA
:1042F00061F11092C00220E488E190E00FB6F894DA
:10430000A895809360000FBE2093600080E00E941B
:10431000041180E00E947E040E94712183B7817F96
:10432000846083BF83B7816083BF7894889583B7A7
:104330008E7F83BF0FB6F894A89580916000886146
:1043400080936000109260000FBE08950C94552178
:104350000E9461190E94C20F0E943E140E947E04B6
:104360000C94A6211F920F920FB60F9211248F93D7
:104370009F93AF93BF938091C002811113C080912E
:10438000280390912903A0912A03B0912B03419611
:10439000A11DB11D8093280390932903A0932A03A4
:1043A000B0932B03BF91AF919F918F910F900FBE50
:1043B0000F901F90189582E084BD93E095BD9AEF11
:1043C00097BD80936E0008952FB7F89480912803CD
:1043D00090912903A0912A03B0912B032FBF089538
:1043E0009C014FB7F8948091280390912903A091E4
:1043F0002A03B0912B034FBF821B930B089578942F
:104400001F920F920FB60F9211248F939F93AF9329
:10441000BF938091280390912903A0912A03B09122
:104420002B030196A11DB11D8093280390932903AE
:10443000A0932A03B0932B03BF91AF919F918F91CB
:104440000F900FBE0F901F90189581E08093E000B1
:1044500080E28093D8001092C9008FE19EE401971A
:10446000F1F700C0000087E090EBDC0180933B0394
:1044700090933C03A0933D03B0933E039CE088E1FE
:104480000FB6F894A895809360000FBE90936000DB
:10449000FFCF0C94E11F0E9457078FE39CE901971F
:1044A000F1F700C000000E94570780E00E94EE066E
:1044B00080FF04C00E9449220C94252208950E9486
:1044C000E71F811102C00E9490200E94F21F80937A
:1044D000BF020E94FA1F90932D0380932C030E9429
:1044E000F61F682F70E080E090E00E945A1D6091F6
:1044F00092027091930280919402909195020C9493
:10450000921D8091C70280FF0BC060911F0185E062
:10451000689FB001112475956795759567952BC0B7
:1045200081FF09C060911F0185E0689FB0011124DF
:104530007595679520C082FF07C060911F0185E0D7
:10454000689FB001112417C09091C6029923D1F041
:1045500060911E01961788F720911F0185E0289F22
:1045600090011124929FA001939F500D112470E09F
:10457000CA010E943B2C6038710540F46115710539
:1045800019F406C065E070E0862F08958FE708955E
:1045900081E008958091C70280FF08C060911B01EF
:1045A00070E0759567957595679521C081FF06C088
:1045B00060911B0170E07595679519C082FF04C07A
:1045C00060911B0170E010C09091C502992399F091
:1045D00060911A019617A0F780911B01899FC00175
:1045E000112470E00E943B2C6038710540F4611585
:1045F000710519F406C061E070E0862F08958FE719
:10460000089581E00895803F21F40E9481228195E0
:1046100004C0813F29F40E9481228093CB02089537
:10462000823F21F40E948122819504C0833F29F4B6
:104630000E9481228093CA020895893F19F40E9442
:10464000CA2205C08A3F31F40E94CA228195809314
:10465000CC0208958B3F21F40E94CA22819504C0A8
:104660008C3F29F40E94CA228093CD020895843F92
:1046700021F48091C902816017C0853F21F48091A7
:10468000C902826011C0863F21F48091C902846012
:104690000BC0873F21F48091C902886005C0883F24
:1046A00031F48091C90280618093C90208958D3FE1
:1046B00021F48091C70281600BC08E3F21F480916C
:1046C000C702826005C08F3F29F48091C7028460D1
:1046D0008093C7020895803F39F48091CB0287FF11
:1046E0006AC01092CB0267C0813F29F48091CB024F
:1046F0001816BCF360C09091CA02823F29F497FF5C
:104700005AC01092CA0257C0833F19F41916CCF34D
:1047100052C09091CC02893F31F419160CF04BC075
:104720001092CC0248C08A3F19F497FF44C0F8CFDA
:104730008B3F39F48091CD0287FF3DC01092CD02AE
:104740003AC08C3F29F48091CD021816BCF333C0D7
:10475000843F21F48091C9028E7F17C0853F21F4E8
:104760008091C9028D7F11C0863F21F48091C902DA
:104770008B7F0BC0873F21F48091C902877F05C0E2
:10478000883F31F48091C9028F7E8093C90213C0A3
:104790008D3F21F48091C7028E7F0BC08E3F21F4A4
:1047A0008091C7028D7F05C08F3F29F48091C70299
:1047B0008B7F8093C7028091CA02811106C08091CD
:1047C000CB02811102C01092C6028091CC028111ED
:1047D00006C08091CD02811102C01092C5020895D9
:1047E0000E94E4212091CA02211104C02091CB0231
:1047F000222321F09093C4028093C3022091CC0223
:10480000211104C02091CD02222321F09093C202F5
:104810008093C10288EC92E00C946414EF92FF92B2
:104820000F931F93CF93DF9300D000D000D0CDB76C
:10483000DEB786E0E8ECF2E0DE01119601900D9221
:104840008A95E1F7E090CA02F090CB020091CC0289
:104850001091CD021092CA021092CB021092CC029B
:104860001092CD02E11003C0FF2009F45DC08091D9
:10487000C3029091C4020E94F021AC019091C60243
:10488000992339F02091200130E02417350758F0A2
:104890004BC0209121018AE0289F90011124241708
:1048A000350718F041C09F3F19F09F5F9093C602F3
:1048B000EE2061F00E9481221E1414F09FEF01C0CF
:1048C00091E0989F902D11249093CA02FF2061F0EF
:1048D0000E9481221F1414F09FEF01C091E0989F65
:1048E000902D11249093CB023091CA023323E1F032
:1048F0002091CB022223C1F045EB3403C0011124E7
:10490000992319F09093CA0203C081E08093CA02F0
:1049100035EB2303C0011124992319F09093CB02A6
:1049200003C081E08093CB02011103C0112309F47D
:104930005DC08091C1029091C2020E94F021AC0141
:104940009091C502992339F020911C0130E0241781
:10495000350758F04BC020911D018AE0289F900137
:1049600011242417350718F041C09F3F19F09F5FAD
:104970009093C502002361F00E94CA22101614F021
:104980009FEF01C091E0989F902D11249093CC024D
:10499000112361F00E94CA22111614F09FEF01C08A
:1049A00091E0989F902D11249093CD023091CC02EC
:1049B0003323E1F02091CD022223C1F045EB3403F3
:1049C000C0011124992319F09093CC0203C081E017
:1049D0008093CC0235EB2303C0011124992319F0F5
:1049E0009093CD0203C081E08093CD028091CA02F2
:1049F00081110BC08091CB02811107C08091CC0244
:104A0000811103C08091CD0281110E94F023EB82BD
:104A1000FC820D831E8386E0FE013196A8ECB2E095
:104A200001900D928A95E1F726960FB6F894DEBFB5
:104A30000FBECDBFDF91CF911F910F91FF90EF90EF
:104A40000895E8ECF2E086E0DF011D928A95E9F72F
:104A50001092C6021092C5021092C702089580916A
:104A6000EE020895CF93DF9300D01F92CDB7DEB74B
:104A700090913203943019F589837B836A8382E0B5
:104A80008093E9008FEF9091E800815095FD06C07A
:104A900095ED9A95F1F700008111F5CF8091E8002E
:104AA00085FF0DC040E050E063E070E0CE0101966C
:104AB0000E945F278091E8008E778093E8000F9036
:104AC0000F900F90DF91CF910895BC0184E00C947A
:104AD0003225BC0183E00C94322522E02093E900CA
:104AE0002FEF3091E800215035FD06C035ED3A95A5
:104AF000F1F700002111F5CF2091E80025FF0BC050
:104B000040E050E066E070E00E945F278091E8009E
:104B10008E778093E8000895CF93DF9320912C0146
:104B2000222339F020912C0327FF03C060E222E00A
:104B300002C068E021E02093E9002FEF3091E80007
:104B4000215035FD06C035ED3A95F1F700002111F1
:104B5000F5CF2091E80025FF1DC0EC0180912C01CC
:104B6000811105C040E050E068E070E003C070E0F3
:104B700040E050E0CE010E945F278091E8008E77F0
:104B80008093E80080E2FE01AEECB2E001900D926D
:104B90008A95E1F7DF91CF910895809131038111DA
:104BA00009C00E94F0280E944D298091E200846093
:104BB0008093E200089510923103089508950895B6
:104BC0000C94A82142E061EC81E00E94692842E255
:104BD00061EC82E00C94692880913403833009F4FD
:104BE00060C030F4813071F0823009F499C00895CA
:104BF0008A3009F485C08B3009F46BC0893009F024
:104C0000A7C020C080913303813A09F0A1C08091F0
:104C1000E800877F8093E800809137039091380304
:104C2000892B21F460E28EEC92E003C060E080E02A
:104C300090E070E00E94AA278091E8008B77809333
:104C4000E800089580913303813209F081C080919A
:104C5000370390913803029708F07AC08091E800FA
:104C6000877F8093E8008091E80082FD05C08091F5
:104C700032038111F8CF6CC02091F3008091F200D3
:104C800090E0922B029729F48091F1008B7F813084
:104C900021F48091F1008093EE028091E8008B77FF
:104CA00053C080913303813A09F052C08091370399
:104CB00090913803892B09F04BC08091E800877FE1
:104CC0008093E8008091E80080FFFCCF80912C0168
:104CD00036C0809133038132D9F5809137039091AA
:104CE0003803892BA9F58091E800877F8093E8003D
:104CF0000E949E288091350380932C010C946119A9
:104D000080913303813221F58091E800877F809381
:104D1000E8000E949E28809136038093EF02089558
:104D200080913303813AA1F48091E800877F8093DA
:104D3000E8008091E80080FFFCCF8091EF02809333
:104D4000F1008091E8008E778093E8000C949E2813
:104D5000089584B7877F84BF0FB6F894A895809193
:104D60006000886180936000109260000FBE90E048
:104D700080E80FB6F89480936100909361000FBEB5
:104D80000E94AE140E94F0280E944D298091E200FA
:104D900084608093E20078940E94E22B0E94B81411
:104DA00082E291E00E94391480913203853069F4E7
:104DB0000E947321809130038823B1F30E945A210D
:104DC000882391F30E944927EFCF0E94C414ECCFAF
:104DD0000C94EA26292F332723303105C9F060F4DB
:104DE0002130310581F02230310509F04AC08BE3D2
:104DF00090E026E536E049C02132310511F122323A
:104E0000310579F13EC082E190E021E936E03DC014
:104E100099278130910561F040F08230910559F079
:104E2000039779F5E4E2F6E008C0E2E5F6E005C0B4
:104E3000E0E4F6E002C0EAE2F6E0849190E09F014F
:104E400024C06115710541F061307105D1F489E02C
:104E500090E021E836E019C089E090E028E636E0ED
:104E600014C06115710541F06130710551F48CEB8E
:104E700090E023EA36E009C080E490E02FE537E0D7
:104E800004C080E090E020E030E0FA01318320832C
:104E9000089580E189BD82E189BD09B400FEFDCF9E
:104EA0008091D8008F7D8093D8008091E00082604F
:104EB0008093E0008091E00081FDFCCF0895CF92C7
:104EC000DF92EF92FF920F931F93CF93DF93EC014A
:104ED0008B017A010E94BD28811133C0E114F104D5
:104EE00039F0F70180819181081B190BC80FD91F78
:104EF000C12CD12C0115110519F18091E80085FD17
:104F000016C08091E8008E778093E800E114F104E8
:104F100049F0F70180819181C80ED91ED182C082EB
:104F200085E00FC00E94BD28882321F30AC0899123
:104F30008093F10001501109FFEFCF1ADF0ADACF99
:104F400080E0DF91CF911F910F91FF90EF90DF9064
:104F5000CF9008952091390330913A0326173707EF
:104F600048F06115710539F42091E8002E772093FF
:104F7000E80001C0B901FC0120E06115710579F17B
:104F8000809132038823F1F18530F1F18091E800BE
:104F900083FD3CC08091E80082FD2EC08091E80036
:104FA00080FFEBCF2091F3008091F20090E0922BF4
:104FB0006115710551F08830910538F421912093E5
:104FC000F100615071090196F3CF21E0089709F0D3
:104FD00020E08091E8008E778093E800CECF211109
:104FE000CFCF0AC080913203882361F0853061F011
:104FF0008091E80083FD0AC08091E80082FFF2CF33
:1050000080E0089582E0089583E0089581E00895A6
:105010002091390330913A032617370748F061157C
:10502000710539F42091E8002E772093E80001C043
:10503000B901FC0120E06115710591F18091320305
:10504000882309F440C0853009F43FC08091E8000E
:1050500083FD3DC08091E80082FD2FC08091E80073
:1050600080FFE9CF2091F3008091F20090E0922B35
:105070006115710559F08830910540F42491209311
:10508000F1003196615071090196F2CF21E0089745
:1050900009F020E08091E8008E778093E800CBCF84
:1050A0002111CCCF0AC080913203882361F0853072
:1050B00061F08091E80083FD0AC08091E80082FFE2
:1050C000F2CF80E0089582E0089583E0089581E0C2
:1050D0000895982F973068F59093E900981739F064
:1050E0007091EC002091ED005091F00003C0242F4E
:1050F000762F50E021FD02C09F5FECCF3091EB0096
:105100003E7F3093EB003091ED003D7F3093ED001A
:105110003091EB0031603093EB007093EC00209302
:10512000ED005093F0002091EE0027FDE5CF80E0E8
:1051300008958F708093E90081E008958091330392
:1051400087FF11C08091E80082FD05C08091320385
:105150008111F8CF11C08091E8008B770BC080914E
:105160003203882349F08091E80080FFF8CF8091D6
:10517000E8008E778093E80008952091E400309154
:10518000E50095E64091EC00842F817040FF23C03C
:105190008091E80080FD1DC080913203882399F042
:1051A000853099F08091EB0085FD11C04091E400BD
:1051B0005091E5002417350729F3915011F09A0119
:1051C000E1CF84E0089582E0089583E0089581E0CE
:1051D000089580E008954091E80042FFDDCF0895F2
:1051E0000E945E290E946629E0EEF0E080818160E5
:1051F0008083E8EDF0E080818F77808319BCA7ED94
:10520000B0E08C918E7F8C9380818F7E8083109212
:10521000310308950F931F93CF93DF930E945E296C
:105220000E946629C8EDD0E088818F7788838881C5
:105230008068888388818F7D888319BC10923203AF
:1052400010922E031092300310922F0300EE10E004
:10525000F80180818B7F808388818160888342E030
:1052600060E080E00E946928E1EEF0E080818E7FBE
:105270008083E2EEF0E080818160808380818860BD
:105280008083F80180818E7F80838881806188831C
:10529000DF91CF911F910F910895E8EDF0E08081AB
:1052A0008F7E8083E7EDF0E080818160808384E001
:1052B00082BF81E0809331030C940A29E8EDF0E08D
:1052C00080818E7F80831092E20008951092DA0030
:1052D0001092E10008951F920F920FB60F921124C1
:1052E0002F933F934F935F936F937F938F939F93EE
:1052F000AF93BF93EF93FF938091E10082FF0BC0C8
:105300008091E20082FF07C08091E1008B7F809353
:10531000E1000E94E12B8091DA0080FF1FC08091A4
:10532000D80080FF1BC08091DA008E7F8093DA0066
:105330008091D90080FF0DC080E189BD82E189BDE7
:1053400009B400FEFDCF81E0809332030E94CD2599
:1053500005C019BC109232030E94DB258091E10048
:1053600080FF19C08091E20080FF15C08091E200AB
:105370008E7F8093E2008091E20080618093E20062
:105380008091D80080628093D80019BC85E080931A
:1053900032030E94DF258091E10084FF30C08091BC
:1053A000E20084FF2CC080E189BD82E189BD09B49F
:1053B00000FEFDCF8091D8008F7D8093D800809132
:1053C000E1008F7E8093E1008091E2008F7E8093E8
:1053D000E2008091E20081608093E20080912E03E0
:1053E000882311F084E007C08091E30087FD02C0AC
:1053F00081E001C083E0809332030E94E025809128
:10540000E10083FF29C08091E20083FF25C08091E5
:10541000E100877F8093E10082E080933203109265
:105420002E038091E1008E7F8093E1008091E20065
:105430008E7F8093E2008091E20080618093E200A1
:1054400042E060E080E00E9469288091F00088607E
:105450008093F0000E94DE25FF91EF91BF91AF9104
:105460009F918F917F916F915F914F913F912F917C
:105470000F900FBE0F901F9018951F920F920FB6AE
:105480000F9211242F933F934F935F936F937F93CA
:105490008F939F93AF93BF93CF93DF93EF93FF933C
:1054A000C091E900CF708091EC00D82FD17080FDC1
:1054B000D0E81092E9008091F000877F8093F0009F
:1054C00078940E94812A1092E9008091F00088600F
:1054D0008093F000CD2BCF70C093E900FF91EF9146
:1054E000DF91CF91BF91AF919F918F917F916F91FC
:1054F0005F914F913F912F910F900FBE0F901F9092
:1055000018951F93CF93DF93CDB7DEB7AA970FB649
:10551000F894DEBF0FBECDBFE3E3F3E08091F1006E
:10552000819323E0EB33F207C9F70E94EC258091C9
:10553000E80083FF2EC18091330390913403492FFB
:1055400050E04A30510508F024C1FA01E157FF4FFD
:105550000C94712C803821F0823809F01AC108C0EF
:1055600080912F0390913003992389F082600FC0BE
:10557000809137038F70873008F00BC18093E9006A
:105580008091EB0085FB882780F91092E9009091CB
:10559000E800977F9093E8008093F1001092F1006B
:1055A000D1C0282F2D7F09F0F4C0882319F0823054
:1055B00061F0EFC080913503813009F0EAC093308B
:1055C00009F080E0809330032EC080913503811173
:1055D0002AC0809137038F702FEF280F263008F0F4
:1055E000D8C08093E9002091EB0020FF1CC09330CD
:1055F00021F48091EB00806214C09091EB009061E7
:105600009093EB0021E030E0A90102C0440F551F48
:105610008A95E2F74093EA001092EA008091EB004D
:1056200088608093EB001092E9008091E800877F0A
:105630008093E8000E949E28ACC08111AAC01091FE
:1056400035031F778091E3008078812B8093E300FE
:105650008091E800877F8093E8000E949E288091D7
:10566000E80080FFFCCF8091E30080688093E30036
:10567000111102C082E001C083E08093320389C02F
:105680008058823008F085C08091350390913603B0
:105690008C3D53E0950779F583E08A838AE289831C
:1056A0004FB7F894DE01139620E03EE051E2E32F7D
:1056B000F0E050935700E49120FF03C0E295EF70B3
:1056C0003F5FEF708E2F90E0EA3010F0C79601C078
:1056D000C0968D939D932F5F243149F74FBF8091E2
:1056E000E800877F8093E8006AE270E0CE010196CF
:1056F0000E94AA2716C06091370370913803AE014B
:105700004F5F5F4F0E94E826BC01892B09F441C01E
:105710009091E800977F9093E80089819A810E9498
:1057200008288091E8008B778093E80032C08038A9
:1057300081F58091E800877F8093E80080912E03B7
:105740008093F1008091E8008E7772CF811121C0A3
:10575000809135039091360399270297D4F4809174
:10576000E800877F8093E8008091350380932E03C3
:105770000E949E2880912E03811106C08091E30033
:1057800087FD02C081E001C084E0809332030E9463
:10579000E2258091E80083FF0AC08091E800877FBE
:1057A0008093E8008091EB0080628093EB00AA96E2
:1057B0000FB6F894DEBF0FBECDBFDF91CF911F9122
:1057C00008950895CF93809132038823A1F0C0916A
:1057D000E900CF709091EC00892F817090FD80E8F6
:1057E000C82B1092E9008091E80083FD0E94812A75
:1057F000CF70C093E900CF910895DB018F939F9301
:105800000E94952CBF91AF91A29F800D911DA39FE7
:10581000900DB29F900D11240895991B79E004C05A
:10582000991F961708F0961B881F7A95C9F78095DF
:10583000089587FB082E062687FD819567FD6195F3
:105840000E940D2C0EF4919507FC81950895AA1BDA
:10585000BB1B51E107C0AA1FBB1FA617B70710F05B
:10586000A61BB70B881F991F5A95A9F7809590958D
:10587000BC01CD01089597FB072E16F4009407D0C4
:1058800077FD09D00E94272C07FC05D03EF49095A7
:1058900081959F4F0895709561957F4F0895A1E27E
:1058A0001A2EAA1BBB1BFD010DC0AA1FBB1FEE1F9A
:1058B000FF1FA217B307E407F50720F0A21BB30BE5
:1058C000E40BF50B661F771F881F991F1A9469F761
:1058D00060957095809590959B01AC01BD01CF01BD
:1058E0000895EE0FFF1F0590F491E02D09940E949A
:1058F0007F2C332312F48A1B9B0B0C94902CA29FB9
:10590000B001B39FC001A39F700D811D1124911D93
:10591000B29F700D811D1124911D08950E947F2C4E
:10592000B7FF0895821B930B08950E947F2CA59FBB
:10593000900DB49F900DA49F800D911D112408958A
:10594000B7FF0C94952C0E94952C821B930B089505
:105950008F929F92AF92BF92CF92DF92EF92FF927F
:10596000CF93DF93EC01688179818A819B816115F6
:1059700071058105910521F464E279ED8BE597E0ED
:105980002DE133EF41E050E00E94592D49015A01C9
:105990009B01AC01A7EAB1E40E94952C6B017C014C
:1059A000ACEEB4EFA50194010E94A32CDC01CB0165
:1059B0008C0D9D1DAE1DBF1DB7FF03C00197A10932
:1059C000B04888839983AA83BB839F77DF91CF9167
:1059D000FF90EF90DF90CF90BF90AF909F908F900F
:1059E00008950E94A82C089580E091E00E94A82CC0
:1059F0000895A0E0B0E08093000190930101A0938E
:105A00000201B09303010895FC014150504030F071
:105A100001900616D1F73197CF010895882799276D
:105A20000895F999FECF92BD81BDF89A992780B566
:105A30000895A6E1B0E044E050E00C944B2DA8E1BD
:105A4000B0E042E050E00C944B2D262FF999FECFA8
:105A500092BD81BDF89A019700B4021639F01FBAC1
:105A600020BD0FB6F894FA9AF99A0FBE08950396DE
:105A7000272F0E94262D0E94252D252F0E94262D9E
:105A8000242F0C94262D0196272F0E94262D0C944E
:105A9000252DDC01CB01FC01F999FECF06C0F2BD3A
:105AA000E1BDF89A319600B40D9241505040B8F7DC
:105AB0000895052E97FB1EF400940E94702D57FD4B
:105AC00007D00E944F2C07FC03D04EF40C94702D8D
:105AD00050954095309521953F4F4F4F5F4F08951A
